:020000022000DC
:1070000000000420197202000172020003720200E3
:1070100005720200077202000972020000000000FF
:107020000000000000000000000000000B720200E1
:107030000D720200000000000F72020011720200C7
:10704000F5B202001372020091C002001372020036
:10705000137202001372020089BF02001372020051
:107060001372020013720200137202001372020004
:1070700013720200137202001372020013720200F4
:1070800013720200ADFE02001372020013720200BE
:107090001372020013720200A12503001372020092
:1070A00013720200137202001372020013720200C4
:1070B00013720200137202000000000000000000C2
:1070C00013720200137202001372020013720200A4
:1070D0001372020013720200137202001372020094
:1070E000137202001372020013720200000000000B
:1070F0000000000013720200000000001372020082
:10710000000000000000000000000000000000007F
:10711000000000000000000000000000000000006F
:10712000000000000000000000000000000000005F
:10713000000000000000000000000000000000004F
:10714000000000000000000000000000000000003F
:10715000000000000000000000000000000000002F
:10716000000000000000000000000000000000001F
:10717000000000000000000000000000000000000F
:1071800000000000000000000000000000000000FF
:1071900000000000000000000000000000000000EF
:1071A00000000000000000000000000000000000DF
:1071B00000000000000000000000000000000000CF
:1071C00000000000000000000000000000000000BF
:1071D00000000000000000000000000000000000AF
:1071E000000000000000000000000000000000009F
:1071F000000000000000000000000000000000008F
:10720000FEE7FEE7FEE7FEE7FEE7FEE7FEE7FEE756
:10721000FEE7FEE700F002B8FFF7FCBF0F484FF0B3
:107220000701884385460E4880470E48016841F4AF
:1072300070010160BFF34F8FBFF36F8F00F01AB87A
:1072400009480A490A4A884207D0521A05D00378E9
:1072500001300B700131013AF9D170470000042070
:107260003590020088ED00E0482E0300B02D00208C
:10727000B02D00203A493B480A1A02D00722914318
:107280008D46394939480A1A06D00722914381F3BD
:107290000988022282F3148835483649364A00F0BC
:1072A00041F836483649374A00F03CF83648374905
:1072B000374A00F037F837483749384A00F032F893
:1072C00037483849384A00F02DF838483849394AA3
:1072D00000F028F838483949394A00F023F839488D
:1072E0003949002200F036F838483949002200F0C8
:1072F00031F838483849091A0BF0B4FC374A90473E
:1073000025482649884205D00268043003B49047D6
:1073100003BCF7E700208646EC4600200021304AF7
:107320009047FEE7884214D0521A12D003460B430E
:1073300013430324234206D1036804300B60043155
:10734000043AF9D17047037801300B700131013AEA
:10735000F9D17047884202D002700130FAE77047D5
:107360000000042000E003200000042000000420AE
:10737000744F0300B02D0020482F0020E47302005A
:10738000E47302006C2D0300744F0300B02D002045
:10739000B02D0020482E0300482E0300482E030085
:1073A000482E0300482E0300482E0300482E0300F9
:1073B000482E0300714F03000C510300482F00209A
:1073C000482F0020482F0020F83A0020F83A0020EB
:1073D000F83A0020F83A0020F85A002041720200E2
:0473E000097B020023
:1073E400014B1846704700BF482F002082B0034667
:1073F4008DF80730034A9DF80730137000BF02B0C0
:10740400704700BF482F002000B583B001900B46A1
:107414008DF803300A4B1B78002B0CD1019B0B2BEE
:1074240003D10220FFF7E2FF05E0019B0C2B02D100
:107434000120FFF7DBFF00BF03B05DF804FB00BFD2
:10744400482F002000B587B004F07CFB0590059B15
:107454000493049B002B04D01E4A2F21049807F0A8
:10746400DDF81D4A01AB1268114619800233120C73
:107474001A7003238DF8053001AB184A19460B2006
:1074840004F0D0FB0590059B0393039B002B04D0D1
:10749400104A3521039807F0C1F801210B2004F0AC
:1074A4003DFC01AB0D4A19460C2004F0BBFB0590D2
:1074B400059B0293029B002B04D0064A3A210298B2
:1074C40007F0ACF801210C2004F028FC00BF07B041
:1074D4005DF804FB482E0300D82E03000D7402004F
:1074E40000B585B00190019B002B0AD0074B43F0F7
:1074F40001030393019B9B010293039B029898470A
:1075040000E000BF05B05DF804FB00BFC02F03001E
:1075140072DF704700BF184673DF704700BF18461C
:1075240074DF704700BF184676DF704700BF184607
:107534007ADF704700BF18467CDF704700BF1846EB
:1075440000B583B00190019B002B0AD04FF47A70F0
:10755400FFF7C6FF019B013B0193019B002BF5D173
:1075640000E000BF03B05DF804FB000000B583B089
:107574000190019B1B78022B07D1019B5B680E4A8B
:107584009B21184607F04AF811E0019B1B78012B58
:1075940007D1019B5B68084A9F21184607F03EF813
:1075A40005E0019B1B78002B01D100F089FB00BF93
:1075B40003B05DF804FB00BFDC2E030000B585B00A
:1075C4000190019B1B78002B10D10A4BDB8A3B21D5
:1075D4001846FFF7A9FF0390039B0293029B002B1D
:1075E40004D0054AC821029807F018F800BF05B076
:1075F4005DF804FBD4300020DC2E030000B583B01A
:107604000190044AD321019807F008F800BF03B0A1
:107614005DF804FBDC2E030000B58BB001AB1C222B
:10762400002118460BF070FB002301934FF4A023B4
:1076340002934FF4A033039303238DF810300023F7
:10764400ADF8123000238DF814300B4B06930B4B1E
:10765400079301AB184602F0B7FC0990099B089305
:10766400089B002B04D0064AEA21089806F0D6FFAE
:1076740000BF0BB05DF804FBC17502000176020087
:10768400DC2E030000B59BB09DF81830012262F394
:1076940003038DF818309DF81830012262F30713A4
:1076A4008DF8183006AB0B2234491846FFF744FF17
:1076B400199007AB3C22002118460BF025FB02234E
:1076C4008DF81C3001238DF81E3006238DF81F30F1
:1076D4002B4B196807AB2B4A184602F030FA199065
:1076E400199B1893189B002B05D0274A40F20111CF
:1076F400189806F093FF6B461822002118460BF0E9
:1077040003FB04238DF8153004238DF81630002371
:10771400ADF80C3006238DF80030002301930023CC
:107724008DF8143040230293154B196807AB154AA2
:10773400184602F004FA1990199B1793179B002B13
:1077440005D0114A40F21111179806F067FF6B46F5
:107754001A460B490D48FFF7DBFE1990199B169347
:10776400169B002B05D0084A4FF48A71169806F030
:1077740055FF00BF1BB05DF804FB00BF602F030082
:10778400B42D0020B82D0020DC2E0300B02D0020E5
:1077940000B599B004238DF85F305923ADF8083053
:1077A4002A4B04936E23ADF80C3005AB3C22002128
:1077B40018460BF0A9FA02238DF814309DF85F30B7
:1077C4008DF8173002AB0E931822002120480BF0DD
:1077D4009BFA1F4B0A221A701D4B00225A601C4B45
:1077E40000221A751A4BA0229A60194B00229A8122
:1077F400174B04225A75164B04229A75154B1968B7
:1078040005AB154A184602F09AF91690169B159383
:10781400159B002B05D0114A40F25711159806F01C
:10782400FDFE0B4A0B490E48FFF772FE1690169B9D
:107834001493149B002B05D0084A4FF4AD7114988F
:1078440006F0ECFE00BF19B05DF804FBC42D002067
:10785400BC2F0020B42D0020B82D0020DC2E030006
:10786400B02D002000B585B0124B1B7801211846BD
:10787400FFF752FE0390039B0293029B002B05D05B
:107884000D4A40F26311029806F0C8FE012001F08F
:107894001BF90390039B0193019B002B05D0064A1F
:1078A4004FF4B371019806F0B9FE00BF05B05DF85E
:1078B40004FB00BFB02D0020DC2E030000B583B014
:1078C4000C4B1B78FF2B10D00A4B1B781846FFF784
:1078D40027FE0190019B0093009B002B05D0064AD4
:1078E40040F26F11009806F099FE00BF03B05DF8F6
:1078F40004FB00BFB02D0020DC2E030000B587B0D0
:107904000AF0CAFD0590059B0493049B002B05D047
:10791400164A40F27D11049806F080FE002301937C
:1079240001AB194601200AF06FFE0590059B0393F5
:10793400039B002B05D00D4A40F28311039806F0F7
:107944006DFE01AB18460AF07DFF0590059B02937E
:10795400029B002B05D0054A40F28711029806F0DD
:107964005DFE00BF07B05DF804FB00BFDC2E030022
:1079740000B583B00021012001F0C0F80190019B03
:107984000093009B002B05D0044A40F29B11009801
:1079940006F044FE00BF03B05DF804FBDC2E0300D8
:1079A40000B583B007F094FA0190019B0093009B0B
:1079B400002B05D0044A40F2A311009806F02EFED5
:1079C40000BF03B05DF804FBDC2E030000B583B0F8
:1079D40009F040FA0190019B0093009B002B05D015
:1079E400044A40F2AD11009806F018FE00BF03B03F
:1079F4005DF804FBDC2E030000B587B09DF8003071
:107A0400012262F303038DF800309DF80030012257
:107A140062F307138DF800306B460B221B4918469E
:107A2400FFF78AFD0590059B0493049B002B05D06A
:107A3400174A40F2C311049806F0F0FD01AB082286
:107A4400002118460BF060F95023ADF80430A02350
:107A5400ADF806300023ADF808304FF4C873ADF824
:107A64000A3001AB1846FFF763FD0590059B0393AD
:107A7400039B002B05D0064A4FF4E671039806F0E9
:107A8400CDFD00BF07B05DF804FB00BF602F03000D
:107A9400DC2E030000B583B00021094802F07CFE0F
:107AA4000190019B0093009B002B05D0054A40F2F6
:107AB400F111009806F0B2FD00BF03B05DF804FBBD
:107AC400F4300020DC2E030000B583B00190009157
:107AD400009B1B78042B05D0042B09DC012B09D057
:107AE400032B05E0FFF7BEFE054B01221A7002E0EE
:107AF40000BF00E000BF00BF03B05DF804FB00BF9F
:107B0400F030002030B58FB000230D93374B384A46
:107B14001A60384B05AC1D460FCD0FC495E8030021
:107B240084E80300344B01934FF480730293334B86
:107B340003934FF48073049301A905A80223304AE8
:107B440007F018FC0D900D9B0C930C9B002B05D09B
:107B54002C4A40F223210C9806F060FDFFF720FF29
:107B6400FFF706FFFFF76EFCFFF730FFFFF7C6FED7
:107B7400FFF752FDFFF740FFFFF78CFF1B49224838
:107B840000F0C6F9FFF72CFC0346204A13601F4B94
:107B94001B681B78022B13D0022B23DC002B1DD077
:107BA400012B1FD11A4800F075F800F047F80023A4
:107BB4008DF82F309DF82F301846FFF717FC11E091
:107BC400144800F067F800F029F800238DF82F30EE
:107BD4009DF82F301846FFF709FC03E00E4800F02B
:107BE40059F800BF0A20FFF7ABFCCBE7EC300020CC
:107BF400CD7A0200A42F03000C3100200C320020A7
:107C040071750200DC2E0300D430002008310020FE
:107C14006C2F0300802F0300942F030008B5064B3C
:107C24001B78002B01D0FFF749FEFFF72BFDFFF770
:107C340019FE00BF08BD00BFF030002008B5114B8D
:107C44001B78002B1CD0104B1B78002B01D0FFF7A6
:107C540035FE6E2200210D480BF056F80B4A0C4BF2
:107C6400104619466E231A460BF01CF8FFF790FDD8
:107C7400FFF7F8FD044B01221A70024B00221A7020
:107C840000BF08BDBA2F0020F0300020C42D002012
:107C94004C2F002000B583B0019007E0019B1B78B6
:107CA400184607F031FC019B01330193019B1B78BB
:107CB400002BF3D100BF00BF03B05DF804FB00004C
:107CC40000B583B000238DF807300DF10703184683
:107CD40007F0E0FB0346002B36D11E4B1B78022B2A
:107CE40027D0022B30DC002B02D0012B0DD02BE04F
:107CF4006E22002118480BF007F89DF807302A2B54
:107D040021D1144B01221A701DE09DF80730232B5A
:107D140003D1104B02221A7016E0104B1B785A1C28
:107D2400D1B20E4A11701A469DF807100A4B9954A5
:107D34000AE00A4B00221A70094B01221A70054B03
:107D440000221A7000E000BF054B1B78184603B0F0
:107D54005DF804FB492F00204C2F00200C33002039
:107D6400BA2F002076DF704700BF18468FDF7047B8
:107D740000BF1846A8DF704700BF184662DF70478F
:107D840000BF184600B585B001900091009B9A8809
:107D9400019BDA82009B9B881946094802F002FE87
:107DA4000390039B0293029B002B04D0054A4121BC
:107DB400029806F033FC00BF05B05DF804FB00BF79
:107DC40010330020C82F030082B001900091019B62
:107DD4004FF6FF72DA8200BF02B0704700B585B07B
:107DE40001900091009B5B89022B18D1019B1B68B9
:107DF400002B14D0009B0C33184602F093FA034670
:107E0400002B03D001238DF80C3002E002238DF8FF
:107E14000C30019B1B6803AA11460198984700BFC8
:107E240005B05DF804FB00B585B001900091009B9E
:107E340006330393039B1A88019B5B899A4203D1FF
:107E440003990198FFF7CAFF00BF05B05DF804FB72
:107E540000B58BB001900091009B099300238DF82D
:107E6400183000238DF81830019B1B88562B3ED008
:107E7400562B43DC502B1DD0502B3FDC212B1DD027
:107E8400212B3BDC102B02D0112B05D036E00199BD
:107E94000998FFF777FF34E001990998FFF794FFF9
:107EA40004238DF81830099B1B6806AA114609980B
:107EB400984726E001990998FFF7B5FF00238DF84C
:107EC4000C3000238DF80D30019B9B8803AA1146CA
:107ED4001846FFF74BFF0890089B0793079B002B5E
:107EE4000ED00A4AA221079806F098FB08E0019BED
:107EF4009B8813211846FFF735FF089000BF00E068
:107F040000BF00BF0BB05DF804FB00BFC82F030027
:107F140010B596B0019000910023079307AB194662
:107F2400224802F01DFD1590159B1493149B002B01
:107F340004D01F4ABA21149806F070FB009B1A68FB
:107F4400019B1A60019B4FF6FF72DA8202238DF8BF
:107F54004330184B03AC0FCB84E80F000DF1430200
:107F640003AB11461846FFF709FF1590159B1393B1
:107F7400139B002B01D0139B14E046F29563ADF8DC
:107F8400443001238DF84630019B1A1D11AB19466C
:107F94000120FFF7EFFE1590159B002B01D0159BD8
:107FA40000E00023184616B010BD00BF10330020B7
:107FB400C82F03005430030000B583B00190019B27
:107FC4001B68184600F002F90346002B04D10B4944
:107FD4004FF4F67007F076FF019B1B681F2B02D845
:107FE4004FF0A04306E0019B1B6803F01F02019BB6
:107FF4001A60034B184603B05DF804FB64300300B9
:108004000003005000B585B00190084611461A4699
:1080140003468DF803300B468DF8023013468DF875
:10802400013001AB1846FFF7C7FF03909DF803200A
:108034009DF802305B001A439DF801309B001A43FF
:108044009DF818301B0242EA03019DF81C301B0402
:10805400019A1943039B02F5E07243F8221000BF12
:1080640005B05DF804FB00B585B0039000230193CF
:10807400002300930023012201210398FFF7C2FF8C
:1080840000BF05B05DF804FB00B585B003900B4656
:108094008DF80B309DF80B300022019200220092E3
:1080A400002200210398FFF7ADFF00BF05B05DF883
:1080B40004FB00B585B0019001AB1846FFF77CFFC7
:1080C4000390019B012202FA03F31946039800F07E
:1080D40069F800BF05B05DF804FB00B585B00190F8
:1080E40001AB1846FFF768FF0390019B012202FAD7
:1080F40003F31946039800F05FF800BF05B05DF87C
:1081040004FB00B585B0019001AB1846FFF754FF9E
:108114000390039BD3F804350293029BDA43019B3B
:10812400012101FA03F31A40039BC3F80825019BBC
:1081340001229A40029B1A40039BC3F80C2500BFFE
:1081440005B05DF804FB00B583B001900091009B7D
:10815400002B03D10198FFF7C0FF02E00198FFF75D
:10816400A8FF00BF03B05DF804FB00B585B0019023
:1081740001AB1846FFF720FF0390039800F00AF8BC
:108184000246019B22FA03F303F00103184605B0EB
:108194005DF804FB82B00190019BD3F804351846C6
:1081A40002B0704782B001900091019B009AC3F81D
:1081B400082500BF02B0704782B001900091019B76
:1081C400009AC3F80C2500BF02B0704784B0019038
:1081D400019B5B09029300230393029B002B03D0B2
:1081E400029B012B04D007E04FF0FF33039303E01D
:1081F4004FF6FF73039300BF019B03F01F0301932A
:10820400039A019B22FA03F303F00103002B14BF2A
:1082140001230023DBB2184604B0704700B585B0D3
:108224000190019B032B03D911493A2007F04AFE20
:10823400104A019B13441B781846FFF796FF034628
:10824400002B14BF012300238DF80F309DF80F304D
:10825400002B14BF01230023DBB283F00103DBB244
:1082640003F00103DBB2184605B05DF804FB00BF60
:10827400943003000831030000B583B00190019BE2
:10828400032B03D90749412007F01CFE064A019B32
:1082940013441B7800211846FFF755FF00BF03B0B5
:1082A4005DF804FB943003000831030000B583B08B
:1082B4000190019B032B03D90749472007F002FED5
:1082C400064A019B13441B7801211846FFF73BFF24
:1082D40000BF03B05DF804FB9430030008310300D1
:1082E40000B583B00023019305E00198FFF7DEFF9A
:1082F400019B01330193019B032BF6D900BF00BFFF
:1083040003B05DF804FB00B583B00023019305E0DE
:108314000198FFF7B1FF019B01330193019B032BEC
:10832400F6D900BF00BF03B05DF804FB00B583B00D
:108334000190019B032B03D907495F2007F0C2FD7D
:10834400064A019B13441B781846FFF7DAFE00BF68
:1083540003B05DF804FB00BF943003000831030050
:1083640000B583B00023019309E0094A019B13443B
:108374001B781846FFF777FE019B01330193019B9D
:10838400032BF2D9FFF7ACFF00BF03B05DF804FB89
:108394000831030000B583B0002301930AE0094AC1
:1083A400019B13441B7803211846FFF76DFE019BC4
:1083B40001330193019B032BF1D900BF00BF03B02C
:1083C4005DF804FB0C31030084B001904FF0FF33DF
:1083D4000293002303930DE00A4A039B13441B7882
:1083E4001A46019B934202D1039B029305E0039B2F
:1083F40001330393039B032BEED9029B184604B06D
:10840400704700BF0C31030000B583B00190019B9D
:1084140003F00103002B01D0FFF7A2FF019B03F03F
:108424000203002B01D0FFF7B5FF00BF03B05DF8D6
:1084340004FB000000B587B003460A468DF80730F8
:1084440013468DF8063000238DF81730002304936B
:108454009DF807301846FFF7B7FF0490049B032BE1
:1084640062D89DF80630022B52D0022B5CDC002B24
:1084740031D0012B58D13549049A13465B0013447B
:108484000B441B788DF817303049049A13465B006F
:1084940013440B4401331B78002B0ED02C4B2D4A74
:1084A4004FF48041184606F08BFD0390039B002B8C
:1084B40003D1284A9DF8073013702449049A1346BF
:1084C4005B0013440B4402331978234A049B13447E
:1084D4000A461A7028E01E4B184606F0C9FD1E4ACB
:1084E400049B134419781948049A13465B001344F7
:1084F400034402331B78994215D11449049A134654
:108504005B0013440B4402331B788DF817300AE0E8
:108514000E49049A13465B0013440B4401331B7841
:108524008DF8173000E000BF9DF81730002B09D0FC
:108534000A4B1B68002B05D0084B1B689DF81720BD
:108544001046984700BF07B05DF804FB2C330020A9
:10855400782E0020383300203C33002028330020BC
:1085640000B583B00190019B1B7802211846FFF7E8
:1085740061FF00BF03B05DF804FB000000B583B0E9
:108584000C4B1B78002B0FD00023019308E0019BB8
:10859400022B02D00198FFF789FE019B013301935E
:1085A400019B032BF3D901E0FFF79AFE00BF03B050
:1085B4005DF804FB243300202DE9D04F92B003462C
:1085C4008DF83F300023119300231093CC4B1B787C
:1085D400002B04D0CA4A00231370FFF7CFFF9DF885
:1085E4003F30172B00F23F8201A252F823F000BF64
:1085F400558602006D8602006D860200098702001E
:10860400A587020021880200B5880200D5880200EF
:10861400E5880200118902002F8902004D890200B9
:108624006B89020079890200798902007989020044
:1086340079890200798902000D8A02001B8A0200EE
:108644002F8A0200438A02005D8A02005D8A0200CA
:10865400FFF794FFAB4B184606F00AFD1190AA4AA7
:108664009DF83F301370FFE10020FFF7D7FD03466C
:10867400002B0DD00020FFF719FE9DF83F30012B91
:1086840002D14FF4E16301E04FF47A6310930BE0FD
:108694000020FFF7F1FD9DF83F30012B01D1C823E5
:1086A40001E04FF4C8731093974A9DF83F3013705C
:1086B400944C109B0022009301924FF000024FF063
:1086C4000003DDE900673946CB03314643EA5143F1
:1086D4003146CA0312F57A71029143F10003039300
:1086E4004FF4FA624FF00003DDE902010AF020FAC8
:1086F40002460B46134600221946204606F060FC4B
:108704001190B1E10020FFF789FD0346002B0DD045
:108714000020FFF7CBFD9DF83F30032B02D14FF42F
:10872400487301E04FF47A6310930BE00020FFF7E5
:10873400A3FD9DF83F30032B01D1C82301E04FF482
:10874400C8731093704A9DF83F3013706D4C109BA2
:108754000022049305924FF000024FF00003DDE97C
:1087640004673946CB03314643EA51433146CA03D1
:1087740012F57A71069143F1000307934FF4FA62FC
:108784004FF00003DDE906010AF0D2F902460B4678
:10879400134600221946204606F012FC119063E1AC
:1087A4000020FFF73BFD0346002B06D00020FFF717
:1087B4007DFD4FF47A63109305E00020FFF75CFD24
:1087C4004FF4C8731093504A9DF83F3013704D4CCA
:1087D400109B00229A4693464FF000024FF000038C
:1087E4004FEACB3343EA5A434FEACA3212F57A715D
:1087F400089143F1000309934FF4FA624FF0000328
:10880400DDE908010AF094F902460B4613460022FA
:108814001946204606F0D4FB119025E10020FFF70D
:10882400FDFC0346002B0CD00020FFF73FFD9DF814
:108834003F30052B01D1C82301E04FF47A63109334
:108844000BE00020FFF718FD9DF83F30052B01D108
:10885400C82301E04FF4C87310932B4A9DF83F30AE
:108864001370284C109B0022984691464FF000024A
:108874004FF000034FEAC93343EA58434FEAC83282
:1088840012F57A710A9143F100030B934FF4FA62E3
:108894004FF00003DDE90A010AF04AF902460B46EB
:1088A400134600221946204606F08AFB1190DBE0AD
:1088B4000020FFF73BFD144A9DF83F301370114B25
:1088C400002240F26661184606F07AFB1190CBE074
:1088D4000020FFF7D1FC0C4A9DF83F301370C3E031
:1088E400074B01221A700120FFF720FD054B0022DF
:1088F40040F26661184606F063FB1190B4E000BFD5
:108904001D330020382E00201C330020594B012237
:108914001A700120FFF70AFD574B00224FF4005153
:10892400184606F04DFB11909EE0524B01221A703E
:108934000120FFF7FBFC504B002240F26661184611
:1089440006F03EFB11908FE04A4B01221A70012081
:10895400FFF7ECFC484B00224FF40051184606F098
:108964002FFB119080E0FFF7CEFC444A9DF83F3086
:10897400137079E0424B184606F07AFB11909DF88B
:108984003F30C3F111031093109B002B35D0119B82
:10899400002B32D1109B012B28D9394C109B9BB250
:1089A4001A46C82302FB03F3DA171E4617464FF094
:1089B40000024FF00003FB0343EA5643F20312F5AF
:1089C4007A710C9143F100030D934FF4FA624FF066
:1089D4000003DDE90C010AF0ABF802460B4613462E
:1089E40000221946204606F0EBFA11900220FFF708
:1089F40043FC244B01221A7036E00220FFF756FC98
:108A0400204B00221A702FE0FFF7B8FD1B4A9DF897
:108A14003F30137028E0FFF7B1FD0020FFF72CFC76
:108A2400164A9DF83F3013701EE0FFF7A7FD0120A2
:108A3400FFF722FC114A9DF83F30137014E0FFF752
:108A44009DFD0020FFF718FC0120FFF715FC0B4AE1
:108A54009DF83F30137007E0FFF755FC074A9DF877
:108A64003F30137000E000BF119B184612B0BDE800
:108A7400D08F00BF1D330020382E00201C3300206F
:108A8400582E00202433002000B583B00190074BFA
:108A94001B6803F00103002B04D0054B1B78184618
:108AA400FFF78AFD00BF03B05DF804FB203300200C
:108AB4001C33002000B583B001900220FFF736FC80
:108AC40000BF03B05DF804FB00B585B003468DF824
:108AD400073000230393084B1B6803F00103002BAA
:108AE40005D09DF807301846FFF766FD0390039BF9
:108AF400184605B05DF804FB2033002000B585B0AE
:108B040001900091002303932A4A019B13602A4A8F
:108B1400009B1360019B03F00203002B2AD0002367
:108B2400029308E001220121029800F055F8039015
:108B3400029B01330293029B032B02D8039B002B5D
:108B4400F0D0039B002B06D140F2333204211B48A2
:108B540005F064FC0390039B002B02D105F0E6FCB6
:108B64000390039B002B05D1154A0021154806F0FC
:108B7400EDF90390019B03F00103002B14D00120B5
:108B8400FFF742FC039B002B05D10F4A00210F483D
:108B940006F0DCF90390039B002B05D10C4A01215C
:108BA4000C4806F0D3F90390039B184605B05DF812
:108BB40004FB00BF20330020283300201C310300B5
:108BC40065850200183103008D8A0200103103000C
:108BD400B98A02001431030084B001900B468DF869
:108BE400033013468DF8023000230393019B032BBB
:108BF4003CD89DF80230012B0BD19DF80330012B9A
:108C040004D1019BDBB20E33DBB200E000238DF80C
:108C140002309DF80330022B0FD0022B23DC002BF3
:108C240016D0012B1FD11449019A13465B0013443B
:108C34000B449DF802201A701AE00F49019A13465A
:108C44005B0013440B4401339DF802201A700FE0BB
:108C54000949019A13465B0013440B4402339DF8FF
:108C640002201A7004E00723039301E0072303930F
:108C7400039B184604B070472C330020BFF34F8F7A
:108C840000BF064BDB6803F4E0620449044B134362
:108C9400CB60BFF34F8F00BF00BFFDE700ED00E0E6
:108CA4000400FA0582B0164B1B680193154B1B6830
:108CB4000093019B082B1FD1009B052B1AD801A2FE
:108CC40052F823F0E18C0200E58C0200E98C0200EA
:108CD400ED8C0200F18C0200F58C020001230CE003
:108CE40001230AE0012308E0012306E0012304E054
:108CF400012302E0012300E00023184602B070477C
:108D0400300100103401001082B0164B1B6801932F
:108D1400154B1B680093019B082B1FD1009B052B4F
:108D24001AD801A252F823F0458D0200498D0200A1
:108D34004D8D0200518D0200558D0200598D0200A7
:108D440001230CE001230AE0012308E0012306E0EB
:108D5400012304E0012302E0012300E0002318467C
:108D640002B07047300100103401001082B0164B7D
:108D74001B680193154B1B680093019B082B1FD1A3
:108D8400009B052B1AD801A252F823F0A98D0200EA
:108D9400AD8D0200B18D0200B58D0200B98D0200C7
:108DA400BD8D020001230CE000230AE0002308E04B
:108DB400002306E0002304E0002302E0002300E097
:108DC4000023184602B0704730010010340100102F
:108DD40082B0164B1B680193154B1B680093019BD3
:108DE400082B1FD1009B052B1AD801A252F823F09F
:108DF4000D8E0200118E0200158E0200198E0200E3
:108E04001D8E0200218E020001230CE000230AE0E3
:108E1400002308E0002306E0002304E0002302E02E
:108E2400002300E00023184602B070473001001010
:108E34003401001082B0164B1B680193154B1B685C
:108E44000093019B082B1FD1009B052B1AD801A26C
:108E540052F823F0718E0200758E0200798E0200A2
:108E64007D8E0200818E0200858E020001230CE0BB
:108E740000230AE0002308E0002306E0002304E0C6
:108E8400002302E0002300E00023184602B07047EC
:108E9400300100103401001082B0164B1B6801939E
:108EA400154B1B680093019B082B1FD1009B052BBE
:108EB4001AD801A252F823F0D58E0200D98E0200EE
:108EC400DD8E0200E18E0200E58E0200E98E0200D2
:108ED40001230CE000230AE0002308E0002306E05D
:108EE400002304E0002302E0002300E000231846EE
:108EF40002B07047300100103401001082B0164BEC
:108F04001B680193154B1B680093019B082B1FD111
:108F1400009B052B1AD801A252F823F0398F0200C6
:108F24003D8F0200418F0200458F0200498F0200ED
:108F34004D8F020001230CE001230AE0012308E025
:108F4400012306E0012304E0012302E0012300E001
:108F54000023184602B0704730010010340100109D
:108F640082B0164B1B680193154B1B680093019B41
:108F7400082B1FD1009B052B1AD801A252F823F00D
:108F84009D8F0200A18F0200A58F0200A98F02000D
:108F9400AD8F0200B18F020000230CE000230AE031
:108FA400002308E0002306E0012304E0012302E09B
:108FB400012300E00023184602B07047300100107E
:108FC4003401001008B5FFF7CBFF0346002B07D090
:108FD4004FF010234FF08042D3F80832C2F85835CE
:108FE40000BF08BD00BF044BD3F80034002BFAD0F7
:108FF40000BF00BF704700BF00E0014000B583B070
:109004000190054A019BC2F80435FFF7EBFF00BF4E
:1090140003B05DF804FB00BF00E00140024B034ACB
:109024001A6000BF704700BF982E00200090D00344
:1090340008B5FFF737FE0346002B0ED04FF08043F0
:109044000022C3F80C214FF080430022C3F8102102
:109054004FF080430022C3F83825FFF755FE03463E
:10906400002B76D04FF08053734AD3F80434C2F8FF
:1090740020354FF08053704AD3F80834C2F82435B1
:109084004FF080536C4AD3F80C34C2F828354FF0B3
:109094008053694AD3F81034C2F82C354FF080530A
:1090A400654AD3F81434C2F830354FF08053624A1D
:1090B400D3F81834C2F834354FF080535E4AD3F8ED
:1090C4001C34C2F840354FF080535B4AD3F8203447
:1090D400C2F844354FF08053574AD3F82434C2F8C9
:1090E40048354FF08053544AD3F82834C2F84C35ED
:1090F4004FF08053504AD3F82C34C2F850354FF017
:1091040080534D4AD3F83034C2F854354FF080536D
:10911400494AD3F83434C2F860354FF08053464A94
:10912400D3F83834C2F864354FF08053424AD3F848
:109134003C34C2F868354FF080533F4AD3F840348A
:10914400C2F86C354FF080533B4AD3F84434C2F82C
:109154007035FFF70BFE0346002B02D0374B384A1D
:109164001A60FFF735FE0346002B03D0354BFB2274
:10917400C3F81825FFF75EFE0346002B0AD0324BD6
:109184001B6823F00F02314B1B6803F00F032E49B9
:1091940013430B60FFF780FE0346002B03D02C4BD8
:1091A4004FF400721A60FFF7A9FE0346002B0DD09E
:1091B4004FF08043D3F8003403F00103002B05D0B3
:1091C4004FF080436FF00102C3F80024214BD3F821
:1091D4008830204A43F47003C2F88830BFF34F8FBD
:1091E40000BFBFF36F8F00BFFFF7ECFE4FF01023FB
:1091F400D3F80032002B05DB4FF01023D3F80432F0
:10920400002B15DA0120FFF7F9FE4FF0102312228C
:10921400C3F80022FFF7E6FE4FF010231222C3F832
:109224000422FFF7DFFE0020FFF7E8FEFFF726FD2C
:10923400FFF7F4FE00BF08BD00C000408C5600409C
:109244004881030000F00040E40E00405802001082
:109254004096024000ED00E06DDF704700BF184605
:1092640079DF704700BF18467DDF704700BF18469E
:1092740064DF704700BF184682B003460091ADF822
:109284000630BDF80630DAB2009B1A70BDF806301D
:109294001B0A9AB2009B0133D2B21A7002231846F9
:1092A40002B0704700B589B0039002911346ADF83F
:1092B4000630029B1B8803F10902BDF806309A426E
:1092C40001D90C2353E004AB1846FFF7C5FF079000
:1092D400079B0693069B002B01D0069B47E0029B4D
:1092E4001B881A46039B134408221A70029B1B888E
:1092F40001339AB2029B1A80029B1B881A46039B75
:1093040013441B221A70029B1B8801339AB2029BDE
:109314001A80029B1B881A46039B981804AB0133DE
:109324000622194609F0BEFC029B1B8806339AB23A
:10933400029B1A809DF8103023F00103DBB2002B4E
:1093440007D1029B1B881A46039B134400221A7000
:1093540006E0029B1B881A46039B134401221A70E1
:10936400029B1B8801339AB2029B1A800023184681
:1093740009B05DF804FB00B589B003900291019235
:10938400ADF80230039B1B78012B05D1039B5B785E
:10939400002B01D1072391E0019B1B889A1CBDF887
:1093A40002309A420ED8039B1B78012B0CD1019BEF
:1093B4001B881A46039B5B7813449A1CBDF8023041
:1093C4009A4201D90C2379E0019B1B88BDF8022045
:1093D400D31A9BB2023BADF81C30BDF81C30ADF87B
:1093E4001230019B1B880233029A13440DF11202BE
:1093F40011461846FFF738FF0690069B0593059B18
:10940400002B01D0059B59E0039B1B78022B06D04F
:10941400039B5B781A46BDF812309A4209D3BDF813
:109424001230BDF81C209A4203D309238DF81F3053
:1094340016E008238DF81F30039B1B78012B0BD1FA
:10944400039B5B781A46BDF81C30934204D3039BFC
:109454005B78ADF8123003E0BDF81C30ADF8123083
:10946400BDF81230FE2B01D90C2327E0BDF81230D1
:10947400DAB2019B1B881946029B0B440132D2B21B
:109484001A70019B1B8801339AB2019B1A80019BBD
:109494001B881A46029B13449DF81F201A70019BD7
:1094A4001B8801339AB2019B1A80019B1A88BDF86C
:1094B400123013449AB2019B1A800023184609B053
:1094C4005DF804FB00B589B0039002911346ADF832
:1094D4000630029B1B881A1DBDF806309A4201D93A
:1094E4000C233AE00DF116031846FFF7B9FE079076
:1094F400079B0693069B002B01D0069B2DE0029B45
:109504001B881A46039B134403221A70029B1B8870
:1095140001339AB2029B1A80029B1B881A46039B52
:10952400134419221A70029B1B8801339AB2029BBE
:109534001A80BDF81620029B1B881946039B0B4416
:1095440019461046FFF798FE03461A46029B1B88ED
:1095540013449AB2029B1A800023184609B05DF89E
:1095640004FB84B0029101921A4603468DF80F3031
:109574001346ADF80C30019B1B88DA1CBDF80C3087
:109584009A4201D90C2328E0019B1B881A46029BAE
:10959400134402221A70019B1B8801339AB2019B67
:1095A4001A80019B1B881A46029B134401221A70DD
:1095B400019B1B8801339AB2019B1A80019B1B8873
:1095C4001A46029B13449DF80F201A70019B1B88B6
:1095D40001339AB2019B1A800023184604B07047E5
:1095E40084B0029101921A4603468DF80F30134657
:1095F400ADF80C30019B1B88DA1CBDF80C309A4284
:1096040001D90C2328E0019B1B881A46029B1344B2
:1096140002221A70019B1B8801339AB2019B1A80A3
:10962400019B1B881A46029B13440A221A70019B51
:109634001B8801339AB2019B1A80019B1B881A462E
:10964400029B13449DF80F201A70019B1B88013361
:109654009AB2019B1A800023184604B0704700B5E3
:109664008FB0039001930B468DF80B3013468DF8A1
:109674000A3000238DF83330109B1B88ADF830304E
:1096840000230D9370E0039B5A680D9B9B001A44C2
:1096940005AB106818600DF11B0105AB00221846DC
:1096A400FFF7E6FD0A900A9B0993099B002B01D062
:1096B400099B7BE09DF81B309DF80A209A4250D10B
:1096C4009DF83330002B01D0002300E002238DF8F5
:1096D4002330109B1B881A469DF81B301A449DF8B2
:1096E40023301A44BDF844309A4201DD0C235DE076
:1096F4009DF8333083F00103DBB2002B16D0109BAE
:109704001B8801339AB2109B1A80109B1B881A463F
:10971400019B13449DF80B201A70109B1B88013386
:109724009AB2109B1A8001238DF83330109B1B884A
:109734001A46019B1A440DF11B0105AB1846FFF7AD
:1097440097FD0A900A9B0793079B002B01D0079B68
:109754002CE0109B1B889DF81B2013449AB2109B8D
:109764001A800D9B01330D93039B1B881A460D9B96
:10977400934288DB9DF83330002B16D0109B1A8857
:10978400BDF83030D31A9BB2013BADF82E30BDF892
:109794002E30FF2B01D90C2308E0BDF83030019A9C
:1097A4001344BDF82E20D2B21A70002318460FB00D
:1097B4005DF804FB00B58BB0059003930B468DF860
:1097C400133013468DF812309DF81310BDF8343061
:1097D40001930C9B0093039B02220598FFF73FFF24
:1097E4000990099B0893089B002B01D0089B14E067
:1097F4009DF81210BDF8343001930C9B0093039B29
:1098040010220598FFF72BFF0990099B0793079BEC
:10981400002B01D0079B00E0002318460BB05DF835
:1098240004FB82B00190019B1B88052B0AD9019B84
:109834001B88B3F5486F07D9019B1B884FF6FF724D
:10984400934201D0072325E0019B5B88052B0AD9AD
:10985400019B5B88B3F5486F07D9019B5B884FF682
:10986400FF72934201D0072314E0019B1B884FF63B
:10987400FF7293420DD0019B5B884FF6FF729342B7
:1098840007D0019B1A88019B5B889A4201D9072360
:1098940000E00023184602B0704700B587B003907B
:1098A40002910192ADF80230019B1B889A1DBDF80C
:1098B40002309A4201D90C234BE00398FFF7B1FF21
:1098C4000590059B0493049B002B01D0049B40E06E
:1098D400019B1B881A46029B134405221A70019BA4
:1098E4001B8801339AB2019B1A80019B1B881A467C
:1098F400029B134412221A70019B1B8801339AB2F3
:10990400019B1A80039B1A88019B1B881946029BA2
:109914000B4419461046FFF7AFFC03461A46019B59
:109924001B8813449AB2019B1A80039B5A88019B9B
:109934001B881946029B0B4419461046FFF79CFCF2
:1099440003461A46019B1B8813449AB2019B1A8052
:109954000023184607B05DF804FB00B587B00390F8
:1099640002910192ADF80230039B9B880233059368
:10997400019B1B881A46059B13449A1CBDF80230B0
:109984009A4201D90C2353E0059BFE2B01D90C23E9
:109994004EE0059BDAB2019B1B881946029B0B44DF
:1099A4000132D2B21A70019B1B8801339AB2019B17
:1099B4001A80019B1B881A46029B1344FF221A70CB
:1099C400019B1B8801339AB2019B1A80039B1A885E
:1099D400019B1B881946029B0B4419461046FFF74E
:1099E4004BFC03461A46019B1B8813449AB2019B05
:1099F4001A80039B9B88002B19D0039B9B68002B28
:109A040001D1072314E0019B1B881A46029B981876
:109A1400039B9968039B9B881A4609F043F9019BB1
:109A24001A88039B9B8813449AB2019B1A800023D3
:109A3400184607B05DF804FB00B589B003900291A5
:109A44000192ADF80230039B9B6A002B01D10723DE
:109A540071E000238DF81F3065E0039B996A9DF83F
:109A64001F2013465B0013449B000B440693069B84
:109A74009B8802330593059BFE2B01D90C235AE0E6
:109A8400059BDAB2019B1B881946029B0B440132E9
:109A9400D2B21A70019B1B8801339AB2019B1A80BF
:109AA400019B1B881A46029B134416221A70019BC1
:109AB4001B8801339AB2019B1A80069B1A88019B6A
:109AC4001B881946029B0B4419461046FFF7D4FB2A
:109AD40003461A46019B1B8813449AB2019B1A80C1
:109AE400069B9B88002B19D0069B9B68002B01D1F9
:109AF400072320E0019B1B881A46029B9818069BAB
:109B04009968069B9B881A4609F0CCF8019B1A8831
:109B1400069B9B8813449AB2019B1A809DF81F30C0
:109B240001338DF81F30039B93F82C309DF81F20D0
:109B34009A4292D30023184609B05DF804FB00B59D
:109B440095B005900491039200231393039B1B8803
:109B5400ADF84A30039B00221A80059B93F82D3000
:109B6400002B0ED0BDF84A301A4603990498FFF72B
:109B740099FB1390139B1193119B002B01D0119B04
:109B8400D8E0059B9B78002B0ED0BDF84A301A46CE
:109B940003990498FFF796FC1390139B1093109B62
:109BA400002B01D0109BC5E0059BDB78002B10D067
:109BB400059BDB7858B2BDF84A30039A0499FFF745
:109BC400D0FC1390139B0F930F9B002B01D00F9B82
:109BD400B0E0059B5B68002B11D0059B5B6893F993
:109BE4000000BDF84A30039A0499FFF7F9FC13907A
:109BF400139B0E930E9B002B01D00E9B9AE0059BAA
:109C04001B89002B14D0059B03F10800BDF84A30D2
:109C14000193039B0093049B06220221FFF7CAFDD4
:109C24001390139B0D930D9B002B01D00D9B81E092
:109C3400059B1B8A002B14D0059B03F11000BDF873
:109C44004A300193039B0093049B07220321FFF7EF
:109C5400B1FD1390139B0C930C9B002B01D00C9B18
:109C640068E0059B1B8B002B14D0059B03F11800A7
:109C7400BDF84A300193039B0093049B15221421E1
:109C8400FFF798FD1390139B0B930B9B002B01D0B4
:109C94000B9B4FE0059B1B6A002B0FD0059B186A9A
:109CA400BDF84A30039A0499FFF7F7FD1390139B0C
:109CB4000A930A9B002B01D00A9B3BE0059B5B6A3D
:109CC400002B0FD0059B586ABDF84A30039A0499BB
:109CD400FFF743FE1390139B0993099B002B01D0BC
:109CE400099B27E0059B93F82C30002B0ED0BDF880
:109CF4004A30039A04990598FFF79EFE1390139B2C
:109D04000893089B002B01D0089B13E0059B1B784C
:109D1400002B0ED0BDF84A30039A04990598FFF73A
:109D24002AFB1390139B0793079B002B01D0079BDF
:109D340000E0139B184615B05DF804FB75DF70470F
:109D440000BF184676DF704700BF18467ADF7047B9
:109D540000BF18467BDF704700BF184684B0034637
:109D6400ADF806300023039316E00F49039A134617
:109D74009B0013449B000B441B88BDF806209A42A9
:109D840007D1039A13469B0013449B00064A1344CD
:109D940006E0039B01330393039B002BE5D00023D0
:109DA400184604B0704700BF6033002082B00190B1
:109DB4000B46ADF80230019BBDF802201A80019BCE
:109DC40000221A72019B054903F10A020B4603CBD8
:109DD4001060516000BF02B0704700BF9033002094
:109DE40082B00190019B4FF6FF721A8000BF02B04F
:109DF400704788B00390029111461A460B46ADF89D
:109E040006301346ADF80430039B9B881A46BDF810
:109E1400063013440793039B9B881946039B9B8836
:109E2400BDF80620934228BF13469BB2CB1A069373
:109E3400039BDB881A46BDF8043013440593039B47
:109E4400DB881946039BDB88BDF80420934228BFB6
:109E540013469BB2CB1A0493029B5A88039B1B881C
:109E64009A4205D3029B5A88039B5B889A4201D984
:109E740000231CE0029B9B881A46069B934205D84C
:109E8400029B9B881A46079B934201D200230EE053
:109E9400029BDB881A46049B934205D8029BDB880D
:109EA4001A46059B934201D2002300E00123184681
:109EB40008B0704700B583B00190064B9B69002B36
:109EC40003D0044B9B690198984700BF03B05DF829
:109ED40004FB00BF7433002000B585B00346009135
:109EE400ADF80630BDF8063000991846FFF726FF96
:109EF4000390039B002B05D0039B112B02D00398E6
:109F0400FFF7D8FF039B002B0CBF01230023DBB218
:109F1400184605B05DF804FB00B589B00190019BBB
:109F24000793079B9BB21846FFF718FF0690069B02
:109F3400002B42D0069B1A7A224B1B7B9A4215D2E5
:109F4400079B9AB2069B0A3319461046FFF7C4FFD3
:109F540003468DF813309DF81330002B2DD0069B4B
:109F64001B7A0133DAB2069B1A7226E0069B0022A2
:109F74001A72144B1B7C002B0FD0079B9BB23B2106
:109F84001846FFF7DFFE0590059B002B05D0059BC7
:109F9400082B02D00598FFF78DFF0A4B5B69002B55
:109FA4000BD000238DF80C30079B9BB2ADF80E301C
:109FB400044B5B6903AA1046984700BF09B05DF8DB
:109FC40004FB00BF7433002030B587B00190019BBF
:109FD400002B01D10E2353E02B4A019B14461D464E
:109FE4000FCD0FC495E8070084E80700264B274AE5
:109FF4001A60019B1B68002B11D0019B1B6818463B
:10A00400FFF7A4FE0490049B002B01D0049B37E0CF
:10A01400019B1A681D4B1068516803C308E01B4874
:10A02400FFF798FE0490049B002B01D0049B27E0CB
:10A034000023059320E0059A13469B0013449B00DC
:10A04400134A134403930398FFF7CAFE059B5B016D
:10A05400104A1A44039B5A60039B04330E4A00219E
:10A06400184604F073FF0490049B002B01D00323D3
:10A0740006E0059B01330593059B002BDBD00023F1
:10A08400184607B030BD00BF743300209033002061
:10A0940060330020403300201D9F020000B587B0CC
:10A0A40003460091ADF80630009B5B7A002B1AD171
:10A0B400009B1B7A002B03D1164B5B68059302E0CF
:10A0C400144B9B680593009B5B68BDF806200599BB
:10A0D400184604F075FF0490049B002B16D00498D6
:10A0E400FFF7E8FE12E0009B00221A72094B5B693D
:10A0F400002B0BD001238DF80C30BDF80630ADF8E1
:10A104000E30044B5B6903AA1046984700BF07B0A2
:10A114005DF804FB7433002000B585B00190019B09
:10A12400DB7B8DF80F30019B9B88ADF80C309DF8DC
:10A134000F30012B2CD14FF6FF70FFF70FFE02906A
:10A14400029B002B03D10420FFF7B4FE21E0BDF8ED
:10A154000C3019460298FFF729FE029B03F10A000E
:10A16400019B03F110014FF6FF7340F2F312FFF766
:10A1740040FE03461A46029B5A72074BDB89002BAA
:10A1840007D1BDF80C3002991846FFF787FF00E0AD
:10A1940000BF05B05DF804FB7433002000B587B040
:10A1A4000190019B9B88ADF81630BDF81630184617
:10A1B400FFF7D4FD0490049B002B0ED0049B5B6836
:10A1C400184604F055FF0390039B002B02D003981C
:10A1D400FFF770FE0498FFF703FE00BF07B05DF8B9
:10A1E40004FB000000B587B00190019B0633059382
:10A1F400059B1A88194BDB899A422BD1059B5B89F5
:10A20400022B27D1019B9B88ADF81230BDF8123088
:10A214001846FFF7A3FD0390039B002B1AD0059B60
:10A224000C33184600F07EF80346002B06D0BDF828
:10A23400123003991846FFF731FF0BE0039B5B686C
:10A24400184604F015FF0290029B002B02D00298DE
:10A25400FFF730FE00BF07B05DF804FB7433002045
:10A2640000B585B00190019B9B88ADF80E30BDF818
:10A274000E301846FFF772FD0290029B002B15D09A
:10A28400029B03F10A00019B03F108014FF6FF73DF
:10A2940040F2F312FFF7ADFD03461A46029B5A72D1
:10A2A400BDF80E3002991846FFF7F8FE00BF05B05E
:10A2B4005DF804FB00B583B001900091019B1B88FD
:10A2C400502B12D0502B18DC122B12D0122B14DC72
:10A2D400102B02D0112B04D00FE00198FFF71CFFC4
:10A2E4000CE00198FFF75AFF08E00198FFF77AFFA6
:10A2F40004E00198FFF7B4FF00E000BF00BF03B023
:10A304005DF804FB82B00190019B1B781AB2019B9B
:10A3140001331B781B021BB213431BB29BB21846BA
:10A3240002B0704700B585B001900198FFF7EAFFCD
:10A334000346ADF80E30BDF80E3003F00103002BD8
:10A3440014BF01230023DBB2184605B05DF804FBFB
:10A3540090DF704700BF1846A5DF704700BF18465E
:10A36400B5DF704700BF184682B00190019BF72209
:10A374001A80019B17225A80019B00221A71019BAB
:10A3840000225A71019BFB229A71019B1B22DA71F4
:10A3940000BF02B07047000030B589B003460A46DA
:10A3A400ADF806301346ADF80430BDF80430ADF80E
:10A3B4001430BDF80430ADF816300023ADF8183071
:10A3C4000023ADF81A3003AB00221A609A8003AA66
:10A3D40005A9BDF806301846FFF7BAFF0790079B9A
:10A3E400002B39D01E4A1F4BD31ADB081B0443F041
:10A3F4000104BDF80650079806F044FE03462A46B9
:10A404001949204607F021FBBDF80C30002B03D17D
:10A41400BDF80E30002B0ED0114A124BD31ADB08B4
:10A424001B0443F00100BDF80C301A46BDF80E3091
:10A434000E4907F00AFBBDF81030002B0CD0084A77
:10A44400084BD31ADB081B0443F00103BDF81020AA
:10A454000749184607F0E8FA079B184609B030BDCB
:10A46400082E0300C02D03004C3103009831030073
:10A47400D831030010B586B001900091009B9B88F1
:10A48400ADF80E30BDF80E30DB00019A13440633EC
:10A494000593019B1A79059B9A71009BDB7B012B29
:10A4A40002D0022B05D009E0019B1A88059B1A8073
:10A4B40004E0019B5A88059B1A8000BF059B1A88FB
:10A4C400059B5B889A4226D9059B1A88BDF80E30F5
:10A4D40011461846FFF740FF0490049B002B03D15C
:10A4E400059B01225A7116E0049B112B03D1059B95
:10A4F40001221A710FE0114A114BD31ADB081B0415
:10A5040043F00104049806F0BDFD03461A460D49C4
:10A51400204607F089FA059B9A79059BDB799A42D4
:10A5240008D9059B9B791A46BDF80E30114618468A
:10A53400FFF732FF00BF06B010BD00BF082E0300B6
:10A54400C02D03003032030000B583B001900091A8
:10A55400009B9B88DB00019A134406331846FFF7DF
:10A5640003FF00BF03B05DF804FB00B587B00190A2
:10A574000091009B9B88ADF81630009B5B89ADF879
:10A584001430BDF81630DB00019A134406330493EB
:10A59400049B1B88BDF81420934228BF13469AB22B
:10A5A400049B5A80049B5B88172B38BF17239AB2ED
:10A5B400049B5A80019B1B69002B15D0049B5B797B
:10A5C400002B11D040F67723ADF80830BDF81630D3
:10A5D400ADF80A30049B5B88ADF80C30019B1B6915
:10A5E40002AA114601989847049B00225A71049BC1
:10A5F40000221A7100BF07B05DF804FB10B588B0E3
:10A6040001900091009B9B88ADF81A30009BDB8879
:10A61400ADF81830BDF81A30DB00019A1344063344
:10A624000593BDF81830172B38BF1723ADF8183031
:10A63400059B1B88BDF81820934228BF13469AB285
:10A64400059B5A80059B00221A71059B1A88BDF848
:10A654001A3011461846FFF783FE0790079B002B1C
:10A664000FD0174A174BD31ADB081B0443F001041D
:10A67400079806F007FD03461A461349204607F0DB
:10A68400D3F9059B5B79002B16D1019B1B69002B29
:10A6940013D040F67723ADF80C30BDF81A30ADF87E
:10A6A4000E30059B5B88ADF81030019B1B6903AA33
:10A6B40011460198984700E000BF08B010BD00BFE4
:10A6C400082E0300C02D03006432030030B591B09E
:10A6D40001900091009B04AC1D1D0FCD0FC40FCD44
:10A6E4000FC495E8070084E80700BDF81030ADF802
:10A6F4003E30BDF81420BDF83E30D1B2019ADB00E3
:10A7040013440A465A73019B1B69002B19D002ABF0
:10A7140000221A609A804DF67A23ADF80830BDF80D
:10A724003E30ADF80A30BDF83E30019ADB001344E8
:10A734005B7B8DF80C30019B1B6902AA11460198C2
:10A74400984700BF11B030BD00B587B001900091AB
:10A75400009B04330593059B1B88DB00019A13447B
:10A7640006330493059B9B888DF80F30049B9B79DB
:10A774009DF80F20934228BF13468DF80E30059B99
:10A784001B889DF80E2092B211461846FFF704FE6E
:10A7940000BF07B05DF804FB00B585B001900091DF
:10A7A400019B002B01D10E231DE0019B009A1A612D
:10A7B400019BF7221A80019BF7225A80019BFB22FE
:10A7C4001A71002303930AE0039BDB00019A1344EC
:10A7D40006331846FFF7C8FD039B01330393039B1D
:10A7E400002BF1D00023184605B05DF804FB0000EF
:10A7F40010B586B001900091009B0593019B9B8846
:10A80400ADF81230BDF81230002B40F09880019B57
:10A814001B88552B48D0552B55DC242B32DC102BB0
:10A8240051DB103B142B4ED801A252F823F000BF89
:10A834008FA8020099A80200CBA80200CBA80200AE
:10A84400CBA80200CBA80200CBA80200CBA8020030
:10A85400CBA80200CBA80200CBA80200CBA8020020
:10A86400CBA80200CBA80200CBA80200CBA8020010
:10A87400CBA80200CBA80200CBA80200C1A802000A
:10A88400B7A802003A2B0AD01DE001990598FFF7FA
:10A89400F1FD19E001990598FFF756FE14E00199BE
:10A8A4000598FFF762FE0FE001990598FFF7A6FEF1
:10A8B4000AE001990598FFF709FF05E00199059859
:10A8C400FFF742FF00E000BFBDF81230059ADB003D
:10A8D40013449B7A002B33D0BDF81230059ADB0069
:10A8E4001344DA88BDF8123011461846FFF734FDD8
:10A8F4000390039B002B0ED1BDF81230059ADB00A8
:10A90400134400229A72BDF81230059ADB001344F6
:10A914000122DA7214E0039B112B11D0094A0A4B6D
:10A92400D31ADB081B0443F00104039806F0AAFBC6
:10A9340003461A460549204607F076F800E000BFB2
:10A9440006B010BD082E0300C02D030030320300F2
:10A95400B0DF704700BF184666DF704700BF184677
:10A9640082B001900091019B002B01D10E2316E0CF
:10A97400009B002B01D10E2311E0019B1B78DE2BE1
:10A9840001D108230BE0009B1A68019B5A60019BCC
:10A99400DE221A70019B4FF6FF725A80002318467C
:10A9A40002B0704782B001900B46ADF80230019BB3
:10A9B400002B01D10E230AE0019B1B78DE2B01D072
:10A9C400082304E0019BBDF802205A8000231846A6
:10A9D40002B0704700B585B00190019B1B7A002B33
:10A9E40018D0019B5B8800211846FFF7B5FF039040
:10A9F400039B002B03D1019B00221A720AE0039BE4
:10AA0400112B03D1019B01221A7203E0019B5B68A5
:10AA14000398984700BF05B05DF804FB00B583B008
:10AA240001900091009B1B79012B0BD1009B1A888C
:10AA3400019B5B889A4205D1019B01221A720198FD
:10AA4400FFF7C8FF00BF03B05DF804FB82B00190BC
:10AA5400009100BF02B0704700B589B00190009129
:10AA6400009B1A88019B5B889A4236D1009B023373
:10AA74000793079B1B78022B31D1079B1B7A042B6E
:10AA840007D0079B1B7A062B03D0079B1B7A052B49
:10AA940027D102AB00221A605A609A60DA6002235E
:10AAA4008DF808304FF4C073ADF80C30079B1B7A57
:10AAB400052B02D10023ADF80C30009B1B8802AAA1
:10AAC40011461846FFF744FF0690069B002B09D059
:10AAD400019B5B680698984704E000BF02E000BF52
:10AAE40000E000BF09B05DF804FB00B585B001903B
:10AAF4000091009B002B43D0019B002B40D0009B76
:10AB04000393039B1B78DE2B3AD1019B9A88039B0A
:10AB14005B889A4202D10398FFF75CFF019B1B8874
:10AB2400512B18D0512B28DC112B1BD0112B24DCDA
:10AB3400012B02D0022B07D01FE0019B04331946DE
:10AB44000398FFF76BFF1BE0019B0433194603983E
:10AB5400FFF77CFF14E0019B043319460398FFF7C9
:10AB64007BFF0DE0019B9A88039B5B889A4206D188
:10AB7400039B4FF6FF725A8001E000BF00E000BF64
:10AB840005B05DF804FB000082B003468DF8073081
:10AB94009DF90730002B13DB9DF8073003F01F02EB
:10ABA40009499DF907305B09012000FA02F22033BC
:10ABB40041F82320BFF34F8F00BFBFF36F8F00BF57
:10ABC40000BF02B0704700BF00E100E0044BD3F8BF
:10ABD4000034002B14BF01230023DBB21846704756
:10ABE4000000014008B507F0ABFC034683F0010305
:10ABF400DBB2002B03D109497B2005F063F9FFF791
:10AC0400E5FF034683F00103DBB2002B04D000F020
:10AC14004FFB034B00229A7000BF08BD9C32030017
:10AC24009833002000B583B000230193184B1B78A0
:10AC3400002B02D0852301931CE0154B00229A605F
:10AC4400134B00225A60124B00221A61104B00224F
:10AC5400DA60104800F0F2FA019007F071FC034644
:10AC640083F00103DBB2002B01D000F00DFB084B95
:10AC740001221A70FFF7AAFF0346002B02D0044BEF
:10AC840001229A70019B184603B05DF804FB00BFD3
:10AC94009833002071AD020084B00190019B1B68C1
:10ACA4000393039B002B03D0039B1A68019B1A6038
:10ACB400039B184604B0704700B583B0164B1B784D
:10ACC400002B04D1154940F2171005F0FBF8124B84
:10ACD400DB68002B04D111494FF48C7005F0F2F8B5
:10ACE40000238DF807300DF10703184604F0B0FC7B
:10ACF400094BDB68013B084AD360074BDB68002B38
:10AD040001D1FFF76FFF9DF80730184604F0B6FC39
:10AD140000BF03B05DF804FB983300209C320300AD
:10AD240000B585B003468DF807309DF80730002B39
:10AD340002D10C4B039301E00B4B03930398FFF7F1
:10AD4400ABFF0290029B002B06D0029B5B689DF830
:10AD5400072010469847F1E700BF00BF05B05DF833
:10AD640004FB00BFA0330020A833002000B583B04B
:10AD740003468DF807309DF80730002B05D10A4BA8
:10AD840001225A700020FFF7CBFF9DF80730012BFA
:10AD940005D1054B01229A700120FFF7C1FF00BFC6
:10ADA40003B05DF804FB00BF9833002000B583B006
:10ADB40001900091019B002B05D1054B01225A7093
:10ADC4000020FFF7ADFF00BF03B05DF804FB00BF38
:10ADD4009833002000B585B0034600918DF8073004
:10ADE4009DF80730032B29D0032B35DC002B02D030
:10ADF400012B04D030E00020FFF7C6FE2DE0002335
:10AE04008DF80F300DF10F03184604F021FC154B9B
:10AE14001B7883F00103DBB2002B01D0FFF702FFA4
:10AE2400104BDB6801330F4AD3600E4B01229A703A
:10AE34009DF80F30184604F021FC0EE0094B1B78F6
:10AE4400002B04D1084940F2522005F03BF800F0F1
:10AE54001BFAFFF731FF00E000BF00BF05B05DF84B
:10AE640004FB00BF983300209C32030000B589B076
:10AE740001900091009B0793019B1B788DF80C3087
:10AE8400019B5B680493019B9B68DBB28DF81430D3
:10AE9400019BDB680693074A079B52F82330064957
:10AEA400079A51F8221003AA1046984700BF09B028
:10AEB4005DF804FBAC330020B433002000B589B046
:10AEC40001900091009B0793019B1B788DF80C3037
:10AED400019B5B680493019B9B68DBB28DF8143083
:10AEE400019BDB680693074A079B52F82330064907
:10AEF400079A51F8221003AA1046984700BF09B0D8
:10AF04005DF804FBAC330020B433002030B58FB0BF
:10AF1400039002910192039B1B780C932C490C9B88
:10AF2400019A41F82320029B1A692A490C9B41F893
:10AF340023200C9B012B07D1029B5B7F002B03D1A9
:10AF44002549762004F0BEFF029B5B7F1946234A05
:10AF54000C9B13440A461A70029B04AC1D460FCD89
:10AF64000FC495E80F0084E80F000C9B089300239E
:10AF74000D93039B1B781A46184B9B5C002B0DD03A
:10AF8400039B181D019B002B01D0154A00E00022F1
:10AF940004AB194602F052FC0D9014E0039B1B789D
:10AFA4001A460E4B9B5C002B0DD1039B03F10C0046
:10AFB400019B002B01D00B4A00E0002204AB194690
:10AFC40001F06EFC0D900D9B18460FB030BD00BF14
:10AFD400AC330020B43300201C330300BC33002006
:10AFE40071AE0200C1AE020082B003468DF8073094
:10AFF4009DF90730002B0CDB9DF8073003F01F028E
:10B0040005499DF907305B09012000FA02F241F875
:10B01400232000BF02B0704700E100E082B0034685
:10B0240000918DF807309DF90730002B0ADB009B57
:10B03400DAB20C499DF907305201D2B20B4483F8BD
:10B0440000230BE0009BDAB207499DF8073003F0B8
:10B054000F03043B5201D2B20B441A7600BF02B074
:10B06400704700BF00E100E000ED00E082B0019015
:10B07400019B1B0B5BB2184602B0704700B583B04E
:10B0840003460A468DF8073013468DF806309DF8BE
:10B094000630012B03D99DF80630032B0BD99DF8FC
:10B0A4000630042B03D99DF80630072B03D9084931
:10B0B4006B2004F007FF9DF806209DF90730114628
:10B0C4001846FFF7ABFF00BF03B05DF804FB00BFF9
:10B0D4009C33030000B583B003468DF807309DF917
:10B0E40007301846FFF780FF00BF03B05DF804FB8C
:10B0F40082B003468DF807300F4A9DF90730002BC4
:10B1040000DA1F335B115BB252F823209DF907303C
:10B11400594203F01F0301F01F0158BF4B425BB2B9
:10B1240022FA03F303F00103002B14BF01230023CD
:10B13400DBB2184602B0704700E100E082B0019033
:10B144004FF08042019BC2F8083300BF02B0704741
:10B1540082B003468DF807309DF8073003F1804331
:10B1640001221A6000BF02B0704784B00346ADF8F4
:10B174000630BDF8063003F1804300221A60BDF8A2
:10B18400063003F180431B680393039B00BF04B0A4
:10B19400704782B00346ADF80630BDF8063003F1BF
:10B1A40080431B68002B14BF01230023DBB2184625
:10B1B40002B0704782B001904FF08042019BC2F808
:10B1C400183500BF02B070474FF08043D3F81834ED
:10B1D4001B0C03F00103002B14BF01230023DBB27B
:10B1E4001846704700B583B006238DF807304FF03A
:10B1F4008040FFF73BFF03461846FFF779FF0346FD
:10B2040083F00103DBB2002B13D04FF08040FFF733
:10B214002DFF03461A469DF8073019461046FFF7DE
:10B224002DFF4FF08040FFF721FF03461846FFF73C
:10B2340051FF00BF03B05DF804FB000000B585B00A
:10B244000190019B002B03D10D49A42004F03AFE88
:10B25400002303930B4B1B79002B02D0852303930C
:10B2640008E0084A019B1360064B01221A71054B42
:10B2740000225A71039B184605B05DF804FB00BF19
:10B28400D4330300C033002008B5074B1B79002BCF
:10B2940003D10649BD2004F015FEFFF7A3FF0120EA
:10B2A400FFF788FF00BF08BDC0330020D43303007C
:10B2B40008B50D4B1B79002B03D10C49F72004F082
:10B2C40001FE0220FFF73AFF4FF48270FFF74DFFB3
:10B2D4000C20FFF73DFF00BFFFF776FF0346002B6E
:10B2E400FAD100BF00BF08BDC0330020D43303002F
:10B2F40008B54FF48070FFF74CFF0346002B14D0C1
:10B304004FF48070FFF731FF0120FFF717FF114B57
:10B314005B7983F00103DBB2002B06D00D4B0122D5
:10B324005A710C4B1B68002098474FF48270FFF74A
:10B3340030FF0346002B0AD04FF48270FFF715FF4D
:10B344000220FFF7FBFE034B1B680120984700BF58
:10B3540008BD00BFC033002082B003468DF807301B
:10B364009DF90730002B0CDB9DF8073003F01F021A
:10B3740005499DF907305B09012000FA02F241F802
:10B38400232000BF02B0704700E100E082B0034612
:10B3940000918DF807309DF90730002B0ADB009BE4
:10B3A400DAB20C499DF907305201D2B20B4483F84A
:10B3B40000230BE0009BDAB207499DF8073003F045
:10B3C4000F03043B5201D2B20B441A7600BF02B001
:10B3D400704700BF00E100E000ED00E082B00190A2
:10B3E400019B1B0B5BB2184602B0704700B583B0DB
:10B3F40003460A468DF8073013468DF806309DF84B
:10B404000630012B03D99DF80630032B0BD99DF888
:10B414000630042B03D99DF80630072B03D90849BD
:10B424006B2004F04FFD9DF806209DF9073011466E
:10B434001846FFF7ABFF00BF03B05DF804FB00BF85
:10B444005034030000B583B003468DF807309DF9EE
:10B4540007301846FFF780FF00BF03B05DF804FB18
:10B4640000B583B00346ADF80630BDF80630184683
:10B4740000F026F803461B68012B0CBF01230023B0
:10B48400DBB2184603B05DF804FB00B585B0034693
:10B49400ADF80630BDF80630184600F011F8034642
:10B4A4001A4600231360BDF80630184600F008F869
:10B4B40003461B680393039B00BF05B05DF804FBC0
:10B4C40082B00346ADF80630BDF8063003F1804380
:10B4D40003F5C043184602B07047000082B00190E3
:10B4E400034A019BC2F8043300BF02B0704700BF97
:10B4F4000060004082B00190034BD3F80423019B09
:10B504001340184602B070470060004082B00190BA
:10B51400084A019B03F5A27352F82330054943F00E
:10B524000102019B03F5A27341F8232000BF02B07E
:10B53400704700BF0060004084B00390029113463E
:10B544008DF80730144A039B03F5A27352F8233095
:10B55400114923F44F3323F44073039A02F5A27282
:10B5640041F822300C4A039B03F5A27352F82320BE
:10B57400029B1B0203F47C519DF807301B0403F467
:10B5840040330B4304491A43039B03F5A27341F868
:10B59400232000BF04B070470060004082B00190D7
:10B5A400054A019B03F5A27352F823301B0A03F0EA
:10B5B4003F03184602B070470060004082B001901B
:10B5C400064A019B03F5A27352F823301B0C03F0C7
:10B5D4000303DBB2184602B0704700BF00600040AE
:10B5E40000B583B00190019B1B68184600F028F950
:10B5F4000346002B04D10B494FF4F67004F062FCAF
:10B60400019B1B681F2B02D84FF0A04306E0019B4F
:10B614001B6803F01F02019B1A60034B184603B01A
:10B624005DF804FB803403000003005000B585B0CE
:10B634000190084611461A4603468DF803300B461E
:10B644008DF8023013468DF8013001AB1846FFF730
:10B65400C7FF03909DF803209DF802305B001A4356
:10B664009DF801309B001A439DF818301B0242EAF2
:10B6740003019DF81C301B04019A1943039B02F536
:10B68400E07243F8221000BF05B05DF804FB00B57A
:10B6940085B003900B468DF80B309DF80B300022DB
:10B6A400019200220092002200210398FFF7BEFFBE
:10B6B40000BF05B05DF804FB00B585B0019001AB97
:10B6C4001846FFF78DFF0390019A039B02F5E07281
:10B6D40053F8223023F002030293019A039B02F5EC
:10B6E400E072029943F8221000BF05B05DF804FB34
:10B6F40000B585B001900B468DF8033001AB1846B8
:10B70400FFF76EFF0390019A039B02F5E07253F872
:10B714002230019A23F44031039B02F5E07243F88E
:10B724002210019A039B02F5E07253F822109DF84F
:10B7340003301B04019A1943039B02F5E07243F89A
:10B74400221000BF05B05DF804FB00B585B0019080
:10B7540001AB1846FFF744FF0390039800F020F86C
:10B764000246019B22FA03F303F00103184605B0D5
:10B774005DF804FB00B585B0019001AB1846FFF7F6
:10B784002FFF0390019A039B02F5E07253F82230D5
:10B794001B0C03F00303DBB2184605B05DF804FB91
:10B7A40082B00190019BD3F81035184602B070475F
:10B7B40088B0039002910192164A05AB92E8030007
:10B7C40083E80300039B079319E0079B9B00203346
:10B7D4006B4453F80C3CD3F82025019B1A60079B5B
:10B7E4009B0020336B4453F80C3C019A1268C3F855
:10B7F4002025019B04330193079B01330793039A8C
:10B80400029B1344079A9A42DFD300BF00BF08B0DB
:10B81400704700BFB034030000B585B0019001ABA0
:10B824001846FFF7DDFE0390019B012202FA03F3A1
:10B834001A46039BC3F8202500BF05B05DF804FB3E
:10B8440084B00190019B5B09029300230393029B44
:10B85400002B03D0029B012B04D007E04FF0FF33F1
:10B86400039303E04FF6FF73039300BF019B03F0C0
:10B874001F030193039A019B22FA03F303F00103CC
:10B88400002B14BF01230023DBB2184604B0704719
:10B8940084B001900091009B0393019BDB08029309
:10B8A400019B03F0070301930122019B02FA03F3B6
:10B8B4000399029A0A4412781340184604B0704758
:10B8C40084B001900091009B0393019BDB080293D9
:10B8D400019B03F007030193039A029B13441B7813
:10B8E4005AB20121019B01FA03F35BB2134359B22B
:10B8F400039A029B1344CAB21A7000BF04B0704783
:10B9040082B001900C4A019B1344303393F9003008
:10B91400002B09DB084A019B1344303393F90030B0
:10B92400072B01DC012300E0002303F00103DBB259
:10B93400184602B0704700BFC833002082B001909F
:10B94400064A019B1344303393F90030072BCCBFD4
:10B9540001230023DBB2184602B07047C83300202D
:10B9640082B00190064A019B1344303393F90030AE
:10B97400DB43DBB2DB09DBB2184602B0704700BF21
:10B98400C833002084B00390029101928DF80330F3
:10B99400029B59B20E4A039B134430330A461A7071
:10B9A4000B49029B019A41F823209DF8033083F050
:10B9B4000103DBB2002B08D0029B083B039A51B26F
:10B9C400034A13440A4683F8602000BF04B070475A
:10B9D400C833002082B00190044A019B13443033E1
:10B9E400FF221A7000BF02B0704700BFC8330020A6
:10B9F40000B583B0019004490198FFF761FF00BFCF
:10BA040003B05DF804FB00BF2C34002082B0019029
:10BA1400044A019B1344303393F90030184602B0B2
:10BA2400704700BFC833002082B00190034A019BD5
:10BA340052F82330184602B0704700BFC8330020C4
:10BA440084B00190074A019B1344603393F900309A
:10BA54008DF80F309DF80F3023F0C003184604B062
:10BA6400704700BFC833002084B00190074A019B8F
:10BA74001344603393F900308DF80F309DF80F3084
:10BA84009B09DBB2184604B0704700BFC8330020DE
:10BA940000B589B00390029113468DF80730FF2357
:10BAA4008DF81F309DF80730002B01D0002300E0F3
:10BAB400082305939DF80730002B01D0082300E0EC
:10BAC4000C230493059B069314E00F4A069B52F83B
:10BAD4002330B3F1FF3F0AD19DF80730029A06994B
:10BAE4000398FFF74FFF069B8DF81F3006E0069B77
:10BAF40001330693069A049B9A42E6D39DF91F30BC
:10BB0400184609B05DF804FBC833002082B0034630
:10BB14008DF807309DF80730094A4FF0FF3142F89D
:10BB240023109DF80730072B07D99DF80730083BF1
:10BB3400034A1344FF2283F8602000BF02B0704719
:10BB4400C833002000B583B02D4B93F86A30002B26
:10BB540003D008230093009B4EE000238DF80730A8
:10BB640011E09DF807301846FFF76AFE0346002BE4
:10BB740004D09DF807301846FFF72CFF9DF80730D6
:10BB840001338DF807309DF807302F2BE9D90023B6
:10BB94008DF8073009E09DF807301846FFF7B6FF27
:10BBA4009DF8073001338DF807309DF807300B2BD3
:10BBB400F1D906220021134807F0A6F81248FFF72E
:10BBC4000DFC034606211846FFF710FC0E48FFF74C
:10BBD40005FC03461846FFF735FC4FF4BE70FFF72B
:10BBE40054FC4FF00040FFF779FC054B012283F829
:10BBF4006A2000230093009B184603B05DF804FB01
:10BC0400C83300202C34002000600040044B93F81B
:10BC14006A30002B14BF01230023DBB2184670479F
:10BC2400C833002000B587B00390029101920398B5
:10BC3400FFF706FE0346002B04D136494FF40C707F
:10BC440004F040F9002305930398FFF789FE0346A7
:10BC5400002B02D00823059357E0029B9B78C3F383
:10BC64004003DBB21A4601990398FFF711FF03461C
:10BC74008DF813309DF91330B3F1FF3F43D0029B8D
:10BC84009B78C3F38003DBB283F00103DBB2002BA8
:10BC940013D0029B9B7803F00103DBB2002B03D08B
:10BCA4000398FFF709FD05E0029B5B7819460398AA
:10BCB400FFF7EDFC0398FFF79BFE029B9B7803F0D4
:10BCC4000203DBB2002B08D09DF91300029B1B7802
:10BCD4001A460399FFF730FC17E09DF91330083B2F
:10BCE4000D4A134493F96010029B1B789B015AB2CE
:10BCF4009DF91330083B0A4351B2074A13440A46DC
:10BD040083F8602001E004230593059B184607B0DF
:10BD14005DF804FBC0340300C833002000B589B0CB
:10BD240001900B468DF803300198FFF789FD034617
:10BD3400002B04D13A494FF4187004F0C3F8019869
:10BD4400FFF70EFE0346002B04D1354940F2612073
:10BD540004F0B8F80198FFF7F1FD0346002B2AD050
:10BD64000198FFF753FE0346083B1846FFF77CFE95
:10BD740003468DF80F309DF80F30032B0BD101983B
:10BD8400FFF7E3FC0346002B01D0032300E002236A
:10BD94008DF81F3008E09DF80F30012B01D10223EC
:10BDA40000E003238DF81F309DF81F3019460198D9
:10BDB400FFF79EFC30E00198FFF7A2FD0346002B3D
:10BDC4002AD00198FFF722FE03460693069B9BB2F6
:10BDD40040339BB29B00ADF81630069B1846FFF724
:10BDE40095FBBDF816301846FFF74FFB9DF803305E
:10BDF400002B11D00198FFF709FE03461846FFF700
:10BE040013FE0490049B002B06D00122069B02FA29
:10BE140003F31846FFF762FB00BF09B05DF804FBAB
:10BE2400C034030000B583B001900198FFF708FD0A
:10BE34000346002B04D1094940F2B22004F042F831
:10BE44000198FFF782FC0346002B14BF0123002353
:10BE5400DBB2184603B05DF804FB00BFC034030036
:10BE640000B585B00190019A02210020FFF7A0FCE3
:10BE7400002303930BE0039B9B00019A13441B686C
:10BE8400002B01D0012306E0039B01330393039BA2
:10BE9400012BF0D90023184605B05DF804FB00001F
:10BEA40000B587B00190002305935BE0344A059BFD
:10BEB4001344603393F90030B3F1FF3F4ED005983B
:10BEC400FFF7BEFD049001990498FFF7E1FC0346D7
:10BED400002B44D00598FFF7C7FD03468DF80F30BB
:10BEE4000498FFF747FC03468DF80E309DF80E309A
:10BEF400022B01D1032300E002238DF80D309DF8BD
:10BF04000D3019460498FFF7F3FB0498FFF784FCFF
:10BF14000498FFF77BFD03461846FFF785FD029062
:10BF2400029B002B1BD09DF80F30032B0FD09DF8E4
:10BF34000E30022B03D19DF80F30012B07D09DF852
:10BF44000E30032B0BD19DF80F30022B07D19DF837
:10BF54000F20029B11460498984700E000BF059B00
:10BF640001330593059B032BA0D90198FFF778FFB4
:10BF74000346002B97D100BF00BF07B05DF804FB58
:10BF8400C833002000B58BB00023089301AB002216
:10BF94001A605A604FF48073ADF81A300123099384
:10BFA4000023079321E0BDF81A301846FFF758FA2A
:10BFB4000346002B0ED00998FFF79CFA0346002B8A
:10BFC40008D0BDF81A301846FFF75FFA089A099BA3
:10BFD40013430893099B5B000993BDF81A3004339B
:10BFE400ADF81A30079B01330793079B072BDAD967
:10BFF4004FF4BE70FFF734FA0346002B0DD04FF414
:10C00400BE70FFF742FA089B43F00043089301AB6C
:10C014001A4602210020FFF7CBFB089BDBB2002B62
:10C0240029D0012309930023079321E0099A089B4F
:10C034001340002B16D00798FFF7B0FA0590079825
:10C04400FFF7BCFA03468DF813300798FFF7ECFCB2
:10C054000390039B002B05D09DF81320039B1146EE
:10C0640005989847099B5B000993079B0133079345
:10C07400079B072BDAD9089B002B03DA01AB184680
:10C08400FFF70EFF00BF0BB05DF804FB08B5064BCD
:10C094001B68002B03D10549512003F013FF024B09
:10C0A4001B68984708BD00BF3434002044350300A2
:10C0B40082B00190019B044A934201D1034B00E0FA
:10C0C4000023184602B0704700200040343400209A
:10C0D40000B587B001900091019B002B03D11C494E
:10C0E400772003F0EFFE0198FFF7E2FF0590059B30
:10C0F400002B25D000238DF8133000238DF80B304E
:10C104000DF10B03184603F0A3FA059B1B79002BD2
:10C1140003D001238DF8133005E0059B009A1A60C3
:10C12400059B01221A719DF80B30184603F0A6FAFC
:10C134009DF81330002B03D011230393039B02E0DB
:10C1440000230393039B184607B05DF804FB00BF6C
:10C154004435030000B585B00190019B002B03D149
:10C164000A499B2003F0AEFE0198FFF7A1FF03905C
:10C17400039B002B05D0039B00221A60039B002223
:10C184001A7100BF05B05DF804FB00BF443503001D
:10C1940082B003468DF807309DF90730002B0CDB85
:10C1A4009DF8073003F01F0205499DF907305B092C
:10C1B400012000FA02F241F8232000BF02B07047C8
:10C1C40000E100E082B003468DF807309DF90730A6
:10C1D400002B13DB9DF8073003F01F0209499DF97A
:10C1E40007305B09012000FA02F2203341F82320D2
:10C1F400BFF34F8F00BFBFF36F8F00BF00BF02B00C
:10C20400704700BF00E100E082B0034600918DF862
:10C2140007309DF90730002B0ADB009BDAB20C498A
:10C224009DF907305201D2B20B4483F800230BE08E
:10C23400009BDAB207499DF8073003F00F03043B73
:10C244005201D2B20B441A7600BF02B0704700BF4D
:10C2540000E100E000ED00E082B00190019B1B0BC7
:10C264005BB2184602B0704700B583B003460A4675
:10C274008DF8073013468DF806309DF80630012BF3
:10C2840003D99DF80630032B0BD99DF80630042BF7
:10C2940003D99DF80630072B03D908496B2003F016
:10C2A40011FE9DF806209DF9073011461846FFF748
:10C2B400ABFF00BF03B05DF804FB00BFC43503004F
:10C2C40000B583B003468DF807309DF90730184652
:10C2D400FFF75EFF00BF03B05DF804FB00B583B059
:10C2E40003468DF807309DF907301846FFF76AFFBB
:10C2F40000BF03B05DF804FB84B001900B46ADF8B9
:10C304000230BDF80230019A134400221A60BDF8CD
:10C314000230019A13441B680393039B00BF04B0CB
:10C32400704782B001900B46ADF80230BDF8023080
:10C33400019A13441B68002B14BF01230023DBB2B2
:10C34400184602B0704782B001900091019B009A98
:10C35400C3F8042300BF02B0704782B0019000917B
:10C36400019BD3F80423009B1340002B14BF01232B
:10C374000023DBB2184602B0704782B001900091EE
:10C38400019B009AC3F8082300BF02B0704784B031
:10C394000190019BD3F880340393019B039AC3F863
:10C3A4008024039B184604B0704782B00190019B1F
:10C3B4000422C3F8002500BF02B0704782B0019088
:10C3C400019B0022C3F8002500BF02B0704784B06F
:10C3D400039002910192039B019AC3F81425039BD5
:10C3E400029AC3F80C2500BF04B0704700B583B0AF
:10C3F40001904FF0FF324FF0FF310198FFF7E7FF54
:10C4040000BF03B05DF804FB82B00190019BD3F838
:10C414000C35184602B0704782B00190019BD3F8E6
:10C424001435184602B0704782B00190019BD3F8CE
:10C434000835184602B0704782B00190019BD3F8CA
:10C444001035184602B0704784B0039002910192EF
:10C45400039B029AC3F80825039B019AC3F810258D
:10C4640000BF04B0704700B583B001904FF0FF32B5
:10C474004FF0FF310198FFF7E7FF00BF03B05DF80D
:10C4840004FB82B00190019BD3F81835DBB2184647
:10C4940002B0704782B001900B468DF803309DF8CE
:10C4A4000320019BC3F81C2500BF02B0704782B073
:10C4B40001900B468DF803309DF80330019A134424
:10C4C40001221A6000BF02B0704782B001900B468F
:10C4D4008DF8033013468DF802309DF803209DF843
:10C4E40002301343DBB21A46019BC3F86C2500BF2C
:10C4F40002B0704782B001900091019B009AC3F88A
:10C50400242500BF02B0704700B583B00190019BA1
:10C514001B68184600F0A4F80346002B04D10B490D
:10C524004FF4F67003F0CEFC019B1B681F2B02D85E
:10C534004FF0A04306E0019B1B6803F01F02019B20
:10C544001A60034B184603B05DF804FBF43503008E
:10C554000003005000B585B00190084611461A4604
:10C5640003468DF803300B468DF8023013468DF8E0
:10C57400013001AB1846FFF7C7FF03909DF8032075
:10C584009DF802305B001A439DF801309B001A436A
:10C594009DF818301B0242EA03019DF81C301B046D
:10C5A400019A1943039B02F5E07243F8221000BF7D
:10C5B40005B05DF804FB00B585B00390002301933A
:10C5C400002300930023012201210398FFF7C2FFF7
:10C5D40000BF05B05DF804FB00B585B003900B46C1
:10C5E4008DF80B309DF80B3000220192002200924E
:10C5F400002200210398FFF7ADFF00BF05B05DF8EE
:10C6040004FB00B585B0039000230193002300933D
:10C614000023012200210398FFF79CFF00BF05B00F
:10C624005DF804FB00B585B0019001AB1846FFF737
:10C634006BFF0390019B012202FA03F3194603984E
:10C6440000F004F800BF05B05DF804FB82B001906F
:10C654000091019B009AC3F8082500BF02B07047FF
:10C6640084B00190019B5B09029300230393029B16
:10C67400002B03D0029B012B04D007E04FF0FF33C3
:10C68400039303E04FF6FF73039300BF019B03F092
:10C694001F030193039A019B22FA03F303F001039E
:10C6A400002B14BF01230023DBB2184604B07047EB
:10C6B40000B583B001900091009B1B68B3F1FF3F6C
:10C6C40009D0009B1B681846FFF7ACFF009B1B6852
:10C6D4001846FFF770FF009B5B68B3F1FF3F05D07E
:10C6E400009B5B6800211846FFF776FF019B1A68E0
:10C6F400009B9B6919461046FFF7FCFE019B1868D6
:10C70400009B597D009B1B7D1A46FFF7DEFE019BB3
:10C714001868009B1968009B5B681A46FFF757FE70
:10C72400009B1B7D012B22D1009B9B68B3F1FF3F33
:10C7340005D0009B9B6800211846FFF74DFF009B26
:10C74400DB68B3F1FF3F09D0009BDB681846FFF7B5
:10C7540069FF009BDB681846FFF72DFF019B1868F3
:10C76400009BD968009B9B681A46FFF76DFE00BFCB
:10C7740003B05DF804FB000000B583B001900B46E4
:10C784008DF80330019B1B684FF48E711846FFF738
:10C79400B3FD019B1B684FF4A2711846FFF7ACFD73
:10C7A400019B1B680E491846FFF7CDFD019B1B68D2
:10C7B4001846FFF751FD03461A469DF80330194603
:10C7C4001046FFF751FD019B1B681846FFF744FD17
:10C7D40003461846FFF774FD00BF03B05DF804FB81
:10C7E4008000020000B583B00190019B1B680849DA
:10C7F4001846FFF7C2FD019B1B681846FFF72CFD86
:10C8040003461846FFF76AFD00BF03B05DF804FB5A
:10C814008402020000B587B00190019B1B68184692
:10C82400FFF7F2FD0590019B1B681846FFF7F4FD26
:10C834000490019B1B681846FFF7F6FD0390019BCB
:10C844001B681846FFF7F8FD0290019B1B68184609
:10C85400FFF7CCFD019B1B681846FFF704FE059B00
:10C86400B3F1FF3F02D00598FFF7CBFE049BB3F171
:10C87400FF3F02D00498FFF7C4FE029BB3F1FF3FD1
:10C8840002D00298FFF7BDFE039BB3F1FF3F02D035
:10C894000398FFF7B6FE00BF07B05DF804FB000085
:10C8A40000B587B0039002910192029B002B03D143
:10C8B4002D49AA2003F006FB039B1B791A462C235F
:10C8C40002FB03F3294A1344049300230593049BB6
:10C8D40093F82A30002B03D008230593059B3EE0F0
:10C8E400039B1A68039B1B791946214B53F821308B
:10C8F40019461046FFF7ECFB0346002B03D0112327
:10C904000593059B2BE002990398FFF7D1FE049B46
:10C91400019A5A60029B1A69049B1A60049B5B6823
:10C92400002B05D0029B1B7F19460398FFF724FFB9
:10C93400039B1B681846FFF738FD049B00229A618D
:10C94400049B0022DA61049B002283F82920049BC3
:10C9540000225A61049B012283F82A20059B184671
:10C9640007B05DF804FB00BF2C3603003C34002004
:10C97400A836030000B585B00190019B1B791A46C7
:10C984002C2302FB03F3114A13440393019B1B68FA
:10C994001846FFF713FD039B5B68002B02D0019838
:10C9A400FFF720FF0198FFF735FF019B1B6818462E
:10C9B400FFF7D0FB039B002283F82A20039B00226D
:10C9C4005A6000BF05B05DF804FB00BF3C34002092
:10C9D40000B585B0019000914FF48E710198FFF776
:10C9E4008BFC009B9A68009B1B6A13441B788DF890
:10C9F4000F30009B1B6A5A1C009B1A629DF80F3073
:10CA040019460198FFF746FD00BF05B05DF804FB29
:10CA140000B585B001900091009B5B69039316E01B
:10CA2400009B93F82830DBB2002B01D0002314E0E4
:10CA34004FF48E710198FFF774FC034683F00103F1
:10CA4400DBB2002BECD100990198FFF7C1FF009BEA
:10CA54001B6A039A9A42EBD80123184605B05DF885
:10CA640004FB000000B587B0039002910192039B80
:10CA74001B791A462C2302FB03F33C4A1344049308
:10CA8400049B93F82A30012B04D039494FF48C705D
:10CA940003F018FA029B002B04D1354940F2191017
:10CAA40003F010FA019B002B04D131494FF48D702F
:10CAB40003F008FA039800F05DF80346002B03D056
:10CAC40011230593059B4CE0049B019A5A61049B36
