:020000022000DC
:1070000000000420197202000172020003720200E3
:1070100005720200077202000972020000000000FF
:107020000000000000000000000000000B720200E1
:107030000D720200000000000F72020011720200C7
:10704000E1B90200137202007DC702001372020050
:10705000137202001372020075C60200137202005E
:107060001372020013720200137202001372020004
:1070700013720200137202001372020013720200F4
:1070800013720200B1FA02001372020013720200BE
:107090001372020013720200612E030013720200C9
:1070A00013720200137202001372020013720200C4
:1070B00013720200137202000000000000000000C2
:1070C00013720200137202001372020013720200A4
:1070D0001372020013720200137202001372020094
:1070E000137202001372020013720200000000000B
:1070F0000000000013720200000000001372020082
:10710000000000000000000000000000000000007F
:10711000000000000000000000000000000000006F
:10712000000000000000000000000000000000005F
:10713000000000000000000000000000000000004F
:10714000000000000000000000000000000000003F
:10715000000000000000000000000000000000002F
:10716000000000000000000000000000000000001F
:10717000000000000000000000000000000000000F
:1071800000000000000000000000000000000000FF
:1071900000000000000000000000000000000000EF
:1071A00000000000000000000000000000000000DF
:1071B00000000000000000000000000000000000CF
:1071C00000000000000000000000000000000000BF
:1071D00000000000000000000000000000000000AF
:1071E000000000000000000000000000000000009F
:1071F000000000000000000000000000000000008F
:10720000FEE7FEE7FEE7FEE7FEE7FEE7FEE7FEE756
:10721000FEE7FEE700F002B8FFF7FCBF0F484FF0B3
:107220000701884385460E4880470E48016841F4AF
:1072300070010160BFF34F8FBFF36F8F00F01AB87A
:1072400009480A490A4A884207D0521A05D00378E9
:1072500001300B700131013AF9D170470000042070
:10726000ED84020088ED00E0583E0300C81D0020B8
:10727000C81D0020384939480A1A02D00722914314
:107280008D46374937480A1A06D00722914381F3C1
:107290000988022282F3148833483449344A00F0C2
:1072A0003CF834483449354A00F037F83448354919
:1072B000354A00F032F835483549364A00F02DF8A5
:1072C00035483649364A00F028F836483649374AB4
:1072D00000F023F836483749374A00F01EF837489F
:1072E0003749002200F031F836483749002200F0D3
:1072F0002CF8364A904726482649884205D002682D
:10730000043003B4904703BCF7E700208646EC4600
:10731000002000212E4A9047FEE7884214D0521ADE
:1073200012D003460B4313430324234206D10368C0
:1073300004300B600431043AF9D17047037801300E
:107340000B700131013AF9D17047884202D00270C6
:107350000130FAE7704700000000042000E003203D
:107360000000042000000420C05D0300C81D0020B0
:107370006C240020D4730200D4730200043D030087
:10738000C05D0300C81D0020C81D0020583E03003A
:10739000583E0300583E0300583E0300583E030089
:1073A000583E0300583E0300583E0300C05D0300F2
:1073B000646403006C2400206C2400206C240020F2
:1073C000BC320020BC320020BC32002041720200DE
:0473D000E17B02005B
:1073D40075DF704700BF184676DF704700BF184658
:1073E4008FDF704700BF184600B583B00346009195
:1073F400ADF80630BDF80630009A1946034807F088
:107404001FFA00BF03B05DF804FB00BFEFBEADDEA2
:1074140000B583B00190044A9C21019807F010FA4A
:1074240000BF03B05DF804FB783E030008B50120FB
:1074340000F072FD00BF08BD00B585B0104803F030
:1074440075FC0390039B0293029B002B04D00D4A0E
:10745400B121029807F0F4F9039B0193019B002BDF
:1074640004D0084AB621019807F0EAF9012000F097
:10747400F1FC002000F0D4FC00BF05B05DF804FB73
:107484006C240020783E030000B587B00190009181
:10749400009B1B78012B02D0022B32D04BE0009BC7
:1074A4005988009B04331A46254803F0BBFE059017
:1074B400244A254BD31ADB081B0443F00300009B2A
:1074C4005B881A4621490AF0E7FC07F041F9059068
:1074D400059B0493049B002B04D01D4ACC210498E3
:1074E40007F0AEF9019803F043FE0590059B039362
:1074F400039B002B1ED0164AD021039807F0A0F955
:1075040018E0104A104BD31ADB081B0443F00300A5
:10751400009B1B791A460F490AF0BEFC009B1B799D
:10752400002B03D0022000F07BFC04E0022000F0DA
:1075340091FC00E000BF00BF07B05DF804FB00BF92
:10754400B4250020743D03004C3D0300DC3E0300E1
:10755400783E0300103F030000B58DB00190009108
:10756400019B04330793019B1B883B2B62DC102B8C
:10757400C0F2FA80103B2B2B00F2F68001A252F8E5
:1075840023F000BF41760200AB7602006D77020063
:107594006D7702006D7702006D7702006D7702004F
:1075A4006D7702006D7702006D7702006D7702003F
:1075B4006D7702006D7702006D7702006D7702002F
:1075C400C77602006D770200F17602006D77020043
:1075D4006D7702006D7702006D7702006D7702000F
:1075E4006D7702006D7702006D7702006D770200FF
:1075F4006D7702006D7702006D7702006D770200EF
:107604006D7702006D7702006D7702006D770200DE
:107614006D7702006D7702006D7702006D770200CE
:107624006D7702006D7702006D7702006D770200BE
:1076340021770200562B00F0848095E0514A524B8A
:10764400D31ADB081B0443F00303504918460AF01D
:1076540015FC079B1B88002219464D4803F0E2FDE8
:107664000B900B9B0593059B002B04D0494AFB21EF
:10767400059807F0E5F8079B1B881946464802F071
:10768400F1F80B900B9B0493049B002B04D0414A0C
:10769400FE21049807F0D4F8012000F0C1FB00207B
:1076A40000F0D8FB69E0374A374BD31ADB081B04D8
:1076B40043F00303394918460AF0E0FBFFF7BCFE28
:1076C4005BE0079B1A88079B043319461046FFF7B3
:1076D4007FFE0B900B9B0693069B002B46D02D4AF6
:1076E4004FF48E71069807F0ABF83FE02C4B1B88E3
:1076F400ADF80C30019B9B8803AA11461846FFF78E
:107704006FFE0B900B9B0A930A9B002B30D0214AEF
:107714004FF494710A9807F093F829E0019B9B8831
:1077240013211846FFF758FE0B900B9B0893089BF8
:10773400002B1FD0174A40F23111089807F080F847
:1077440018E0019B9B8813211846FFF745FE0B9018
:107754000B9B0993099B002B0ED00E4A4FF49D718D
:10776400099807F06DF807E000BF06E000BF04E0E9
:1077740000BF02E000BF00E000BF00BF0DB05DF835
:1077840004FB00BF743D03004C3D0300383F03007D
:10779400B4250020783E0300C81D0020443F0300A8
:1077A400543F030000B587B00D4B01930D4B02937A
:1077B4000D4B039301AB19460C4803F01BFC0590D9
:1077C400059B0493049B002B05D0094A4FF4A87130
:1077D400049807F035F800BF07B05DF804FB00BF5C
:1077E4008D7402009C23002015740200B42500202F
:1077F400783E030000B587B00BF0AEFA0590059B08
:107804000493049B002B05D0164A40F25D110498A2
:1078140007F016F80023019301AB194601200BF081
:1078240053FB0590059B0393039B002B05D00D4A46
:1078340040F26311039807F003F801AB18460BF00C
:1078440035FC0590059B0293029B002B05D0054A4D
:1078540040F26711029806F0F3FF00BF07B05DF82D
:1078640004FB00BF783E030000B585B003460A461A
:107874008DF8073013468DF806309DF807300B2B32
:107884002DD19DF8063019461C4803F08BFC03905B
:10789400039B002B12D0039B43F2020293420DD0B0
:1078A400039B082B0AD0039B0293029B002B05D059
:1078B400134A40F27F11029806F0C2FF039B002B8B
:1078C40016D1104A104BD31ADB081B0443F00303F0
:1078D4009DF806200D4918460AF0DEFA08E09DF8E6
:1078E4000730074A4FF4C471184606F0A9FF00E0B8
:1078F40000BF00BF05B05DF804FB00BFB425002045
:10790400783E0300743D03004C3D0300583F0300E0
:1079140000B58DB00190019B5B680A93019B1B69C4
:107924000993019B1B78002B10D0052B40D1019BA0
:107934005B680893089B0793079B002B3AD0204A67
:1079440040F29F11079806F07BFF33E00A9B9B6986
:1079540006930A9B9B8BADF816300023ADF80E30CE
:107964000DF10E02BDF81610FF23069800F0D0FEAC
:107974000346ADF81430BDF80E301A46069B134486
:10798400049300230B930AE00B9B049A13441B7883
:1079940019460C480BF06BF80B9B01330B93BDF8A5
:1079A40016300B9A9A42EFDB07480BF060F802E0BE
:1079B40000BF00E000BF00BF0DB05DF804FB00BFD6
:1079C400783E0300703F0300743F030000B583B0AA
:1079D40040F233320121094806F032FE0190019B46
:1079E4000093009B002B05D0054A4FF4E9710098E1
:1079F40006F026FF00BF03B05DF804FBC02300209F
:107A0400783E030000B583B001900199034803F068
:107A140084FA00BF03B05DF804FB00BFB425002066
:107A240000B585B06B460822002118460CF038F9E1
:107A34000B4B00930B4B01936B46184601F04EFE23
:107A44000390039B0293029B002B05D0064A4FF43C
:107A5400F871029806F0F4FE00BF05B05DF804FB6F
:107A6400097A02009C230020783E030000B583B00D
:107A74004FF48041002009F02BFF0190019B0093FB
:107A8400009B002B05D0064A40F2F911009806F03D
:107A9400D7FE09F09FFE00BF03B05DF804FB00BFF2
:107AA400783E030000B583B007F07AFA0190019B99
:107AB4000093009B002B05D0044A4FF401710098F9
:107AC40006F0BEFE00BF03B05DF804FB783E030081
:107AD40000B583B009F0C2F80190019B0093009BAC
:107AE400002B05D0044A40F20D21009806F0A8FEB0
:107AF40000BF03B05DF804FB783E030000B589B015
:107B04006B461022002118460CF0CAF81C4B009357
:107B14006B461C4A19461C4803F0ABF80790079BB8
:107B24000693069B002B05D0184A40F21D210698A7
:107B340006F086FE00220121134802F027FF079079
:107B4400079B0593059B002B05D0104A40F2212189
:107B5400059806F075FE0E4A00210B4802F0F3FE6C
:107B64000790079B0493049B002B05D0074A4FF40E
:107B74000971049806F064FE00BF09B05DF804FBC7
:107B8400B0230020157902006C240020783E030005
:107B94006C3E030000B583B00021094802F010F9DF
:107BA4000190019B0093009B002B05D0054A40F2F5
:107BB4002D21009806F044FE00BF03B05DF804FBDD
:107BC400CC250020783E030008B50AF0C9F9034625
:107BD400002BFAD109F058F800BF08BD08B5FFF72B
:107BE40045FFFFF75FFFFFF721FCFFF7EFFEFFF70D
:107BF4006FFFFFF7FFFDFFF781FFFFF7CBFFFFF7F5
:107C04000FFFFFF7CFFD094A094BD31ADB081B040A
:107C140043F00303074918460AF030F9FFF70CFC58
:107C2400002000F0FDF8FFF7CFFFFCE7743D0300F0
:107C34004C3D0300783F030000B583B00190019BE5
:107C44001B68184600F0C3F80346002B04D10B4907
:107C54004FF4F670FFF7C8FB019B1B681F2B02D87B
:107C64004FF0A04306E0019B1B6803F01F02019B39
:107C74001A60034B184603B05DF804FB983F0300F9
:107C84000003005000B585B00190084611461A461D
:107C940003468DF803300B468DF8023013468DF8F9
:107CA400013001AB1846FFF7C7FF03909DF803208E
:107CB4009DF802305B001A439DF801309B001A4383
:107CC4009DF818301B0242EA03019DF81C301B0486
:107CD400019A1943039B02F5E07243F8221000BF96
:107CE40005B05DF804FB00B585B003900023019353
:107CF400002300930023012201210398FFF7C2FF10
:107D040000BF05B05DF804FB00B585B003900B46D9
:107D14008DF80B309DF80B30002201920022009266
:107D2400002200210398FFF7ADFF00BF05B05DF806
:107D340004FB00B585B0019001AB1846FFF77CFF4A
:107D44000390019B012202FA03F31946039800F001
:107D54002AF800BF05B05DF804FB00B585B00190BA
:107D640001AB1846FFF768FF0390019B012202FA5A
:107D740003F31946039800F020F800BF05B05DF83E
:107D840004FB00B583B001900091009B002B03D14C
:107D94000198FFF7E2FF02E00198FFF7CAFF00BF76
:107DA40003B05DF804FB82B001900091019B009A3E
:107DB400C3F8082500BF02B0704782B0019000915B
:107DC400019B009AC3F80C2500BF02B0704784B031
:107DD4000190019B5B09029300230393029B002BF8
:107DE40003D0029B012B04D007E04FF0FF33039331
:107DF40003E04FF6FF73039300BF019B03F01F03DF
:107E04000193039A019B22FA03F303F00103002B6D
:107E140014BF01230023DBB2184604B070470000EE
:107E240000B583B00190019B032B03D9074941207E
:107E3400FFF7DAFA064A019B13441B78002118461F
:107E4400FFF79FFF00BF03B05DF804FBC83F0300CA
:107E54001840030000B583B00190019B032B03D9A4
:107E640007494720FFF7C0FA064A019B13441B78D1
:107E740001211846FFF785FF00BF03B05DF804FB3E
:107E8400C83F03001840030000B583B000230193EA
:107E940005E00198FFF7DEFF019B01330193019B8D
:107EA400032BF6D900BF00BF03B05DF804FB00004C
:107EB40000B583B00023019309E0094A019B1344F0
:107EC4001B781846FFF70FFF019B01330193019BB9
:107ED400032BF2D9FFF7D8FF00BF03B05DF804FB12
:107EE4001840030000B583B0002301930AE0094A57
:107EF400019B13441B7803211846FFF705FF019BE0
:107F040001330193019B032BF1D900BF00BF03B0E0
:107F14005DF804FB1C40030000B583B00190019B95
:107F240003F00103002B01D0FFF7C2FF019B03F014
:107F34000203002B01D0FFF7D5FF00BF03B05DF8AB
:107F440004FB000084B001900B468DF80330134607
:107F54008DF8023000230393019B032B3CD89DF83A
:107F64000230012B0BD19DF80330012B04D1019B6E
:107F7400DBB20E33DBB200E000238DF802309DF853
:107F84000330022B0FD0022B23DC002B16D0012B45
:107F94001FD11449019A13465B0013440B449DF806
:107FA40002201A701AE00F49019A13465B00134429
:107FB4000B4401339DF802201A700FE00949019A1D
:107FC40013465B0013440B4402339DF802201A70DD
:107FD40004E00723039301E007230393039B18465C
:107FE40004B070476C27002000B583B00122002143
:107FF4000020FFF7A7FF0190019B002B04D0019BF9
:10800400072B01D0019B1CE0072202210120FFF76E
:1080140099FF0190019B002B04D0019B072B01D0F9
:10802400019B0EE0042202210020FFF78BFF019048
:10803400019B002B04D0019B072B01D0019B00E086
:108044000023184603B05DF804FB00B583B0012299
:1080540002210020FFF776FF0190019B002B04D042
:10806400019B072B01D0019B1CE007220221012068
:10807400FFF768FF0190019B002B04D0019B072BA5
:1080840001D0019B0EE00A2200210020FFF75AFFD5
:108094000190019B002B04D0019B072B01D0019B75
:1080A40000E00023184603B05DF804FB00B585B07A
:1080B40001900091019B1B88102B02D0112B18D02A
:1080C4002FE01A4B1B68002B0DD1FFF78DFF039097
:1080D400039B002B07D0164B1B68002B03D0144BBB
:1080E4001B6803989847114B1B6801330F4A1360B0
:1080F40017E00E4B1B68013B0C4A13600B4B1B68CB
:10810400002B0DD1FFF7A1FF0390039B002B07D099
:10811400074B1B68002B03D0054B1B68039898473B
:1081240000BF00BF05B05DF804FB00BF7C27002042
:1081340078270020BFF34F8F00BF064BDB6803F4A2
:10814400E0620449044B1343CB60BFF34F8F00BF7D
:1081540000BFFDE700ED00E00400FA0582B0164B15
:108164001B680193154B1B680093019B082B1FD1BF
:10817400009B052B1AD801A252F823F09981020022
:108184009D810200A1810200A5810200A981020053
:10819400AD81020001230CE001230AE0012308E081
:1081A400012306E0012304E0012302E0012300E0AF
:1081B4000023184602B0704730010010340100104B
:1081C40082B0164B1B680193154B1B680093019BEF
:1081D400082B1FD1009B052B1AD801A252F823F0BB
:1081E400FD81020001820200058202000982020070
:1081F4000D8202001182020001230CE001230AE037
:10820400012308E0012306E0012304E0012302E046
:10821400012300E00023184602B07047300100102B
:108224003401001082B0164B1B680193154B1B6878
:108234000093019B082B1FD1009B052B1AD801A288
:1082440052F823F061820200658202006982020012
:108254006D820200718202007582020001230CE02B
:1082640000230AE0002308E0002306E0002304E0E2
:10827400002302E0002300E00023184602B0704708
:10828400300100103401001082B0164B1B680193BA
:10829400154B1B680093019B082B1FD1009B052BDA
:1082A4001AD801A252F823F0C5820200C982020042
:1082B400CD820200D1820200D5820200D98202005E
:1082C40001230CE000230AE0002308E0002306E079
:1082D400002304E0002302E0002300E0002318460A
:1082E40002B07047300100103401001082B0164B08
:1082F4001B680193154B1B680093019B082B1FD12E
:10830400009B052B1AD801A252F823F029830200FE
:108314002D83020031830200358302003983020079
:108324003D83020001230CE000230AE0002308E05F
:10833400002306E0002304E0002302E0002300E021
:108344000023184602B070473001001034010010B9
:1083540082B0164B1B680193154B1B680093019B5D
:10836400082B1FD1009B052B1AD801A252F823F029
:108374008D83020091830200958302009983020099
:108384009D830200A183020001230CE000230AE084
:10839400002308E0002306E0002304E0002302E0B9
:1083A400002300E00023184602B07047300100109B
:1083B4003401001082B0164B1B680193154B1B68E7
:1083C4000093019B082B1FD1009B052B1AD801A2F7
:1083D40052F823F0F1830200F5830200F9830200CE
:1083E400FD830200018402000584020001230CE0E5
:1083F40001230AE0012308E0012306E0012304E04D
:10840400012302E0012300E00023184602B0704774
:10841400300100103401001082B0164B1B68019328
:10842400154B1B680093019B082B1FD1009B052B48
:108434001AD801A252F823F055840200598402008C
:108444005D84020061840200658402006984020084
:1084540000230CE000230AE0002308E0002306E0E8
:10846400012304E0012302E0012300E00023184675
:1084740002B07047300100103401001008B5FFF756
:10848400CBFF0346002B07D04FF010234FF0804260
:10849400D3F80832C2F8583500BF08BD00BF044BFA
:1084A400D3F80034002BFAD000BF00BF704700BFE0
:1084B40000E0014000B583B00190054A019BC2F879
:1084C4000435FFF7EBFF00BF03B05DF804FB00BF0A
:1084D40000E00140024B034A1A6000BF704700BF2E
:1084E400C82300200090D00308B5FFF737FE0346E9
:1084F400002B0ED04FF080430022C3F80C214FF024
:1085040080430022C3F810214FF080430022C3F8B7
:108514003825FFF755FE0346002B76D04FF08053E5
:10852400734AD3F80434C2F820354FF08053704AAC
:10853400D3F80834C2F824354FF080536C4AD3F88A
:108544000C34C2F828354FF08053694AD3F81034FC
:10855400C2F82C354FF08053654AD3F81434C2F86E
:1085640030354FF08053624AD3F81834C2F83435AA
:108574004FF080535E4AD3F81C34C2F840354FF0B4
:1085840080535B4AD3F82034C2F844354FF080530B
:10859400574AD3F82434C2F848354FF08053544A2C
:1085A400D3F82834C2F84C354FF08053504AD3F8EE
:1085B4002C34C2F850354FF080534D4AD3F8303440
:1085C400C2F854354FF08053494AD3F83434C2F8D2
:1085D40060354FF08053464AD3F83834C2F86435D6
:1085E4004FF08053424AD3F83C34C2F868354FF018
:1085F40080533F4AD3F84034C2F86C354FF080536F
:108604003B4AD3F84434C2F87035FFF70BFE0346F7
:10861400002B02D0374B384A1A60FFF735FE034669
:10862400002B03D0354BFB22C3F81825FFF75EFE61
:108634000346002B0AD0324B1B6823F00F02314B48
:108644001B6803F00F032E4913430B60FFF780FEF2
:108654000346002B03D02C4B4FF400721A60FFF733
:10866400A9FE0346002B0DD04FF08043D3F800340D
:1086740003F00103002B05D04FF080436FF001029B
:10868400C3F80024214BD3F88830204A43F4700304
:10869400C2F88830BFF34F8F00BFBFF36F8F00BFA6
:1086A400FFF7ECFE4FF01023D3F80032002B05DB6C
:1086B4004FF01023D3F80432002B15DA0120FFF712
:1086C400F9FE4FF010231222C3F80022FFF7E6FE52
:1086D4004FF010231222C3F80422FFF7DFFE00201C
:1086E400FFF7E8FEFFF726FDFFF7F4FE00BF08BD25
:1086F40000C000408C5600404881030000F0004058
:10870400E40E0040580200104096024000ED00E0E4
:1087140086B0039001921A460B46ADF80A30134610
:108724008DF80930039B002B02D0019B002B01D153
:1087340000235BE00023ADF816300CE0BDF81630E2
:10874400039A13441B781A46BDF8163013449BB29F
:108754000133ADF81630BDF816305A1CBDF80A3096
:108764009A420FDA019B1B88BDF816209A42E5D382
:10877400BDF816300133039A13441B789DF8092081
:108784009A42DBD1BDF81620BDF80A309A4201D3D3
:1087940000232BE0BDF816300233ADF81430BDF8D9
:1087A4001630039A13441B78002B07D0BDF81630FB
:1087B400039A13441B78013B9BB200E00023ADF8FD
:1087C4001230BDF81230002B08D0BDF81420BDF8CB
:1087D40012301A44BDF80A309A4201DD002305E044
:1087E400019BBDF814201A80BDF81230184606B05B
:1087F400704700B589B003900B460192ADF80A307A
:108804000023ADF81630019B002B01D100232DE08D
:108814000DF11602BDF80A1009230398FFF778FF3B
:108824000346ADF81E30BDF816301A46039B1344B8
:108834000693BDF81630002B17D0BDF81E30002B60
:1088440013D001980BF08AF90246BDF81E309A4203
:108854000BD1BDF81E301A46069901980BF05BF94E
:108864000346002B01D1012300E00023184609B080
:108874005DF804FB30B58FB00190009100230293A2
:10888400009B002B1AD000230D9314E06B460D9926
:10889400184607F04CFA0346002B09D0029B5A1CD9
:1088A40002920D9A92B25B0038336B4423F82C2C5D
:1088B4000D9B01330D930D9B132BE7D9019B1D4693
:1088C40002AC0FCC0FC50FCC0FC594E8070085E8A8
:1088D400070001980FB030BD00B583B00346ADF872
:1088E4000630BDF80630132B01D900230CE0BDF887
:1088F40006301946064807F0E9F9BDF8063019466E
:10890400044807F0E3F90123184603B05DF804FBBB
:10891400882700208427002000B585B00346ADF8E1
:108924000630002303930DE0039B9B00094A134484
:108934000433BDF806201146184607F0DFF9039BFF
:1089440001330393039B1D2BEED900BF00BF05B079
:108954005DF804FB8027002000B583B00346ADF822
:108964000630BDF806301946034807F0C7F900BFC2
:1089740003B05DF804FB00BF8827002030B59BB02E
:10898400184B9B68DB431893164B5A6818AB114677
:10899400184607F02BFA189A6B4611461846FFF74B
:1089A40069FF0DAC6D460FCD0FC40FCD0FC495E814
:1089B400070084E80700002319930BE0199B5B0070
:1089C40068336B4433F8303C1846FFF7A5FF199B16
:1089D400013319930D9B199A9A42EFD300BF00BF3C
:1089E4001BB030BD8027002000B583B001900B463A
:1089F400ADF8023013468DF801309DF80130002B9C
:108A040006D0BDF802301946019807F05FF905E079
:108A1400BDF802301946019807F070F900BF03B0A1
:108A24005DF804FB00B585B001900091019B9B8823
:108A3400ADF80E30019B1B88103B0A2B00F2888096
:108A440001A252F823F000BF798A0200B58A02001D
:108A5400558B0200558B0200558B0200558B02008A
:108A6400558B0200558B0200558B02001F8B0200B0
:108A7400C18A0200FFF782FFBDF80E301846FFF7E7
:108A84002BFF034683F00103DBB2002B05D0324AEF
:108A9400F021042005F0D4FE57E0019BDB7B022B80
:108AA40053D1BDF80E3019462C4807F00FF94CE0AD
:108AB400BDF80E301846FFF74FFF49E0019B1B7AC3
:108AC400C3F30313DBB28DF80D309DF80D30032B87
:108AD4008CBF01230023DAB2BDF80E3019462048BA
:108AE400FFF782FF9DF80D30022B8CBF012300237A
:108AF400DAB2BDF80E3019461A48FFF775FF9DF833
:108B04000D30012B8CBF01230023DAB2BDF80E30E7
:108B140019461548FFF768FF1AE0019B1B7A002BE2
:108B240015D1019B5B7AC3F3C003DBB2002B14BFE6
:108B3400012300238DF80C309DF80C20BDF80E3075
:108B440019460748FFF750FF01E000BF00E000BFEF
:108B540000BF05B05DF804FB204003008C27002013
:108B640098270020942700209027002084B00190AB
:108B74000023039316E0104A039B9B0013449A7846
:108B8400019B9B789A420AD10B4A039B32F823201B
:108B9400019B1B889A4202D1084B1B6808E0039B87
:108BA40001330393064B1B68039A9A42E3D30023D1
:108BB400184604B0704700BFFC270020142800208A
:108BC4001C28002000B583B0019000910198FFF7A4
:108BD400CDFF0346002B01D0002314E00C4B1B688F
:108BE400052B0FD80A4B1B680A4A01999B001344B2
:108BF4000A4610681860064B1B680133044A136068
:108C0400002300E00423184603B05DF804FB00BF12
:108C14001C280020FC27002000B585B0019000230B
:108C2400039311E0019A039BDB01134403F553738F
:108C34001B68039AD20102F5347201990A44104662
:108C44009847039B01330393064B1B68039A9A428C
:108C5400E8D3019B0022C3F8CC2200BF05B05DF825
:108C640004FB00BF1C28002000B5A3B001900B46F4
:108C7400ADF8023003AB7C22002118460BF010F84B
:108C8400BDF80230ADF80E3003238DF80C30019B93
:108C94000493064B1B68002B04D0044B1B6803AAE7
:108CA4001046984700BF23B05DF804FB1428002049
:108CB40000B5A7B0039002911346ADF80630039BAC
:108CC40093F8C6321A46762302FB03F3039A13443D
:108CD4002593259B1846FFF749FF2490249B002BDE
:108CE40012D005AB7C22002118460AF0D9FF0123DB
:108CF4008DF81430BDF80630ADF81630029B06939B
:108D040005AA249B1046984700BF27B05DF804FBD2
:108D140000B587B0039002911346ADF80630029B6C
:108D24000593059B002283F8C822BDF806301A4635
:108D340003990598FFF7BCFFBDF80630194605985E
:108D4400FFF792FF00BF07B05DF804FB00B585B0E4
:108D540001900B468DF803301346ADF80030019BAB
:108D640093F8C6321A46762302FB03F3019A13449E
:108D74000393039B1846FFF7F9FE0290029B002B16
:108D840052D0019BD3F8CC32052B4DD8019BD3F89C
:108D9400CC32019ADB01134403F2D223BDF8002044
:108DA4001A80019BD3F8CC32019ADB01134403F5FA
:108DB4003473039A04331146762218460AF03EFFB0
:108DC4009DF80330002B0AD0019BD3F8CC32019AD2
:108DD400DB01134403F5347300221A7009E0019B8C
:108DE400D3F8CC32019ADB01134403F53473022225
:108DF4001A70019BD3F8CC32019ADB01134403F5BA
:108E04005373029A1A60019BD3F8CC325A1C019B0B
:108E1400C3F8CC22019BD3F8CC22054B1B689A42A1
:108E240002D10198FFF7F8FE00BF05B05DF804FB1E
:108E34001C28002000B58DB001900B46ADF802301F
:108E440002AB2022002118460AF02AFF019B93F866
:108E5400C7320133DAB2019B83F8C722019B93F82E
:108E6400C7321A462A4B1B689A4244D2019B0022FD
:108E740083F8C522019B93F8C6320133DAB2019B11
:108E840083F8C622019B93F8C6321A46762302FB66
:108E940003F3019A13440B93019B93F8C6320B9985
:108EA4001C4A9B001344186808600B9B00221A712B
:108EB40002238DF808300123ADF818300B9A0DF118
:108EC4001A0312681A60019B0593134B0493134B06
:108ED4001B68BDF8022002A9184601F01BFB0A908A
:108EE4000A9B002B11D0BDF802301A4601990A984A
:108EF400FFF70EFF09E0019B002283F8C822BDF8AA
:108F0400023019460198FFF7AFFE0DB05DF804FB7F
:108F14001C280020FC270020158D020018280020A2
:108F240082B001900091009B1A89019B93F8C6328C
:108F340018460199762300FB03F30B4408331B887E
:108F44009A4201D2012300E00023184602B0704780
:108F540084B00390029101920093019B002B25D1D0
:108F6400029B1A89039B93F8C63218460399762309
:108F740000FB03F30B4408331B889A4201D10023FE
:108F84002AE0029B1B8901339AB2009B1A80039B3F
:108F940093F8C6321946039A762301FB03F313446C
:108FA40008331A88009B5A80012315E0029B1B8911
:108FB4000133019AD288934201D100230CE0029B31
:108FC4001B8901339AB2009B1A80019BDB88013B09
:108FD4009AB2009B5A800123184604B070470000DF
:108FE40000B58FB001900B46ADF8023002AB2022E1
:108FF400002118460AF054FE0AAB04220021184648
:109004000AF04EFE019B93F8C6321A46762302FB01
:1090140003F3019A13440D93019B93F8C532002B7B
:1090240021D0019B93F8C532013B8DF83330019B6D
:1090340093F8C6321A46762302FB03F3019A1344CB
:109044000D939DF833201346DB0013445B00083373
:109054000D9A134402330B930B9B1B8901339BB270
:10906400ADF8283003E00D9BDB88ADF828300D9B6C
:109074001B89ADF82A3003238DF808300A9B069328
:10908400019B0593074B0493074B1B68BDF8022013
:1090940002A9184601F03EFA034618460FB05DF8DF
:1090A40004FB00BF158D02001828002000B593B002
:1090B400039002911346ADF8063000238DF8433037
:1090C40005AB2022002118460AF0EAFD039B93F821
:1090D400C6321A46762302FB03F3039A13440E9313
:1090E400039B93F8C5321A461346DB0013445B0016
:1090F40008330E9A134402331193039B93F8C53239
:1091040001330E9A1279934209D10DAB00221199C1
:109114000398FFF71DFF03468DF843303DE0039BA2
:1091240093F8C5328DF8423031E09DF842200E9B11
:109134001B79013B9A4202D100230F930BE09DF867
:1091440042305A1C1346DB0013445B0008330E9A6A
:10915400134402330F930DAB0F9A11990398FFF741
:10916400F7FE0346002B03D001238DF8433014E0AF
:109174000F9B1193039B93F8C5320133DAB2039B1F
:1091840083F8C5229DF8423001338DF842300E9B9E
:109194001B799DF842209A42C7D39DF8433083F04F
:1091A4000103DBB2002B04D0029B01221A700023BE
:1091B40014E0029B00221A7004238DF814300D9BD6
:1091C4000993039B0893074B0793074B1B68BDF850
:1091D400062005A9184601F09DF90346184613B068
:1091E4005DF804FB158D02001828002000B587B037
:1091F40001900091019B93F8C6321A46762302FB34
:1092040003F3019A13440393009B1A88019BB3F858
:10921400CA329A4261D1009B5B88002B4FD1009BDC
:1092240006330593039B059A0633063212681A60C7
:10923400019B93F8C4328DF81330059B1B888DF87D
:1092440012309DF813209DF812301344062B0ADCCB
:10925400019B93F8C4229DF812301344DAB2019BA7
:1092640083F8C42219E0019B062283F8C4221D4A14
:109274001D4BD31ADB081B0443F002031B49184699
:1092840008F0FCFD174A184BD31ADB081B0443F003
:1092940002031749184608F0F1FD009B1B88194684
:1092A4000198FFF79DFE0290029B002B16D0009BB5
:1092B4001B881A4601990298FFF72AFD0EE0009BCD
:1092C4001B881A4600210198FFF740FD009B1B886C
:1092D40019460198FFF7AEFD00E000BF07B05DF846
:1092E40004FB00BF8C3D03004C3D03008840030099
:1092F400A840030000B58DB00190009100238DF8C3
:109304002F30009B1A88019BB3F8CA329A4240F06E
:10931400FC80019B93F8C6321A46762302FB03F3C2
:10932400019A13440893009B5B88002B40F0BC8097
:10933400009B06330793089B1B798DF81B30079B12
:109344001B888DF81A309DF81B209DF81A301344A1
:10935400062B08DC089B1A799DF81A301344DAB2FC
:10936400089B1A711AE0089B06221A71694A6A4B13
:10937400D31ADB081B0443F00200089B1B881A461F
:10938400664908F089FD634A634BD31ADB081B0462
:1093940043F002036249184608F070FD9DF81B3043
:1093A4000A930023099345E008990A9A1346DB00BF
:1093B40013445B000B4403F108010798099A134610
:1093C4009B0013445B00C2188B1C02321068516866
:1093D4001860596012891A8108990A9A1346DB00A9
:1093E40013445B000B44143300221A8008990A9A30
:1093F4001346DB0013445B000B44163300221A802F
:1094040008990A9A1346DB0013445B000B44183393
:1094140000221A8008990A9A1346DB0013445B0061
:109424000B441A3300221A800A9B01330A93099BC6
:1094340001330993089B1B791A460A9B9342B3D3C1
:109444000A9B5A1E1346DB0013445B000833089A38
:1094540013440233059305990198FFF761FD034610
:1094640083F00103DBB2002B03D1089B1B79062B8D
:1094740003D101238DF82F3019E0089B1A79019B41
:1094840083F8C522009B1B8819460198FFF7A8FDA5
:109494000490049B002B0AD0009B1B881A46019958
:1094A4000498FFF735FC31E001238DF82F309DF847
:1094B4002F30002B2AD0019B002283F8C522009B69
:1094C4001A880DF10F0319460198FFF7EFFD049078
:1094D400049B002B07D0009B1B881A460199049813
:1094E400FFF716FC12E09DF80F30002B0ED0009B06
:1094F4001B881A4601210198FFF728FC009B1B8852
:1095040019460198FFF796FC00E000BF0DB05DF826
:1095140004FB00BF8C3D03004C3D0300F0400300FE
:109524003841030000B589B001900091009B1A886E
:10953400019BB3F8CA329A4240F0CC80019B93F865
:10954400C6321A46762302FB03F3019A13440693A8
:10955400009B06330593019B93F8C5321A461346C4
:10956400DB0013445B000833069A1344023304936C
:10957400009B5B88002B70D10023079365E005995D
:10958400079A13465B0013445B000B4404331B88A7
:10959400A3F52453082B45D801A252F823F000BFA9
:1095A400E1950200F9950200C9950200299602008E
:1095B40029960200299602002996020029960200A3
:1095C400119602000599079A13465B0013445B0049
:1095D4000B4402331A88049B5A8123E00599079AA5
:1095E40013465B0013445B000B4402331A88049B4C
:1095F4009A8117E00599079A13465B0013445B00B0
:109604000B4402331A88049BDA810BE00599079A0C
:1096140013465B0013445B000B4402331A88049B1B
:109624001A8200BF049B5B89002B0BD0049B9B898F
:10963400002B07D0049BDB89002B03D0049B1B8ADF
:10964400002B09D1079B01330793059B1B881A46FE
:10965400079B934293D300E000BF00238DF80B30A7
:10966400019B93F8C5320133069A1279934203D1D0
:1096740001238DF80B301BE0019B93F8C5320133B5
:10968400DAB2019B83F8C522009B1A880DF10B0303
:1096940019460198FFF70AFD0390039B002B07D09E
:1096A400009B1B881A4601990398FFF731FB12E0CF
:1096B4009DF80B30002B0ED0009B1B881A4601210D
:1096C4000198FFF743FB009B1B8819460198FFF79D
:1096D400B1FB00E000BF09B05DF804FB84B0019069
:1096E40000230393019B002B01D10E231AE0019B5D
:1096F4001B68002B01D10E2314E0019B5B68002B37
:1097040001D10E230EE0094B00221A60084B0122FE
:109714001A70019B1B68074A1360019B5B68064A29
:109724001360039B184604B0704700BF1C28002038
:1097340020280020142800201828002000B583B019
:109744000190019B002B01D10E230FE0094B1B78E4
:1097540083F00103DBB2002B01D0082306E0064BA3
:109764001B6819460198FFF72DFA0346184603B003
:109774005DF804FB202800201428002000B58FB0D9
:1097840001900B46ADF802304FF4BA620021019803
:109794000AF086FA03AB2022002118460AF080FA68
:1097A4002D4B1B68BDF802201146184600F050FFEF
:1097B4000D900D9B0C930C9B002B01D00C9B47E050
:1097C400019BBDF80220A3F8CA22019B0022C3F822
:1097D400CC22019B002283F8C722019B002283F83C
:1097E400C622019B002283F8C522019B93F8C6324E
:1097F4001A46762302FB03F3019A13440B93019B4D
:1098040093F8C6320B99154A9B00134418680860F4
:1098140002238DF80C300123ADF81C300B9A0DF1A6
:109824001E0312681A60019B06930D4B05930A4BA5
:109834001B68BDF8022003A9184600F06BFE0D90CA
:109844000D9B002B03D1019B012283F8C8220D9BA1
:1098540018460FB05DF804FB18280020FC270020F0
:10986400158D020000B583B001900B46ADF80230AF
:10987400019B002B01D10E231CE0104B1B7883F0BD
:109884000103DBB2002B01D0082313E00C4B1B684F
:10989400002B01D108230DE0019B93F8C832002B63
:1098A40001D0112306E0BDF8023019460198FFF7F4
:1098B40065FF0346184603B05DF804FB202800202A
:1098C4001C28002082B001900091009B1A88019B03
:1098D400B3F8CA329A4208D1019B002283F8C82205
:1098E400019B4FF6FF72A3F8CA2200BF02B0704773
:1098F40000B585B001900091019B002B36D0009BF0
:10990400002B33D01B4B1B7883F00103DBB2002BFD
:109914002CD1009B0393019B1B88332B17D0332B33
:1099240023DC322B0CD0322B1FDC112B16D0302B26
:109934001BD1019B043319460398FFF757FC15E02C
:10994400019B043319460398FFF7D4FC0EE0019BF6
:10995400043319460398FFF7E5FD07E0019B043340
:1099640019460398FFF7AEFF00E000BF05B05DF8AD
:1099740004FB00BF2028002090DF704700BF18467A
:10998400A5DF704700BF1846B5DF704700BF184613
:1099940082B00190019B17221A80019B17225A80E2
:1099A400019B00221A71019B00225A71019B1B2208
:1099B4009A71019B1B22DA7100BF02B0704700004C
:1099C40030B589B003460A46ADF806301346ADF803
:1099D4000430BDF80430ADF81430BDF80430ADF8EF
:1099E40016300023ADF818300023ADF81A3003AB5D
:1099F40000221A609A8003AA05A9BDF80630184609
:109A0400FFF7BAFF0790079B002B39D01E4A1F4B64
:109A1400D31ADB081B0443F00104BDF80650079871
:109A240007F050FC03462A461949204608F045FA37
:109A3400BDF80C30002B03D1BDF80E30002B0ED036
:109A4400114A124BD31ADB081B0443F00100BDF882
:109A54000C301A46BDF80E300E4908F02EFABDF847
:109A64001030002B0CD0084A084BD31ADB081B0417
:109A740043F00103BDF810200749184608F00CFA1A
:109A8400079B184609B030BDAC3D03004C3D0300B4
:109A9400A4410300F04103003042030010B586B036
:109AA40001900091009B9B88ADF80E30BDF80E30FC
:109AB400DB00019A134406330593019B1A79059B35
:109AC4009A71009BDB7B012B02D0022B05D009E0AD
:109AD400019B1A88059B1A8004E0019B5A88059B08
:109AE4001A8000BF059B1A88059B5B889A4226D979
:109AF400059B1A88BDF80E3011461846FFF740FF43
:109B04000490049B002B03D1059B01225A7116E09B
:109B1400049B112B03D1059B01221A710FE0114AFA
:109B2400114BD31ADB081B0443F00104049807F01B
:109B3400C9FB03461A460D49204608F0ADF9059BBA
:109B44009A79059BDB799A4208D9059B9B791A4639
:109B5400BDF80E3011461846FFF732FF00BF06B0BD
:109B640010BD00BFAC3D03004C3D03008842030020
:109B740000B583B001900091009B9B88DB00019AA3
:109B8400134406331846FFF703FF00BF03B05DF824
:109B940004FB00B587B001900091009B9B88ADF851
:109BA4001630009B5B89ADF81430BDF81630DB002D
:109BB400019A134406330493049B1B88BDF81420B4
:109BC400934228BF13469AB2049B5A80049B5B8835
:109BD400172B38BF17239AB2049B5A80019B1B6929
:109BE400002B15D0049B5B79002B11D040F6772312
:109BF400ADF80830BDF81630ADF80A30049B5B8828
:109C0400ADF80C30019B1B6902AA114601989847D4
:109C1400049B00225A71049B00221A7100BF07B0F2
:109C24005DF804FB10B588B001900091009B9B88FF
:109C3400ADF81A30009BDB88ADF81830BDF81A3047
:109C4400DB00019A134406330593BDF81830172B33
:109C540038BF1723ADF81830059B1B88BDF81820B2
:109C6400934228BF13469AB2059B5A80059B002253
:109C74001A71059B1A88BDF81A3011461846FFF769
:109C840083FE0790079B002B0FD0174A174BD31A5C
:109C9400DB081B0443F00104079807F013FB034699
:109CA4001A461349204608F0F7F8059B5B79002B08
:109CB40016D1019B1B69002B13D040F67723ADF816
:109CC4000C30BDF81A30ADF80E30059B5B88ADF84A
:109CD4001030019B1B6903AA11460198984700E0C4
:109CE40000BF08B010BD00BFAC3D03004C3D0300F5
:109CF400BC42030030B591B001900091009B04ACCC
:109D04001D1D0FCD0FC40FCD0FC495E8070084E8C7
:109D14000700BDF81030ADF83E30BDF81420BDF892
:109D24003E30D1B2019ADB0013440A465A73019BB8
:109D34001B69002B19D002AB00221A609A804DF6E1
:109D44007A23ADF80830BDF83E30ADF80A30BDF8DE
:109D54003E30019ADB0013445B7B8DF80C30019B91
:109D64001B6902AA11460198984700BF11B030BD83
:109D740000B587B001900091009B04330593059BC7
:109D84001B88DB00019A134406330493059B9B88CC
:109D94008DF80F30049B9B799DF80F20934228BFC8
:109DA40013468DF80E30059B1B889DF80E2092B249
:109DB40011461846FFF704FE00BF07B05DF804FB28
:109DC40000B585B001900091019B002B01D10E23B9
:109DD4001DE0019B009A1A61019B17221A80019BC6
:109DE40017225A80019B1B221A71002303930AE055
:109DF400039BDB00019A134406331846FFF7C8FDA2
:109E0400039B01330393039B002BF1D000231846DB
:109E140005B05DF804FB000010B586B00190009118
:109E2400009B0593019B9B88ADF81230BDF812305E
:109E3400002B40F09880019B1B88552B48D0552B54
:109E440055DC242B32DC102B51DB103B142B4ED869
:109E540001A252F823F000BFB79E0200C19E020087
:109E6400F39E0200F39E0200F39E0200F39E0200A2
:109E7400F39E0200F39E0200F39E0200F39E020092
:109E8400F39E0200F39E0200F39E0200F39E020082
:109E9400F39E0200F39E0200F39E0200F39E020072
:109EA400F39E0200E99E0200DF9E02003A2B0AD0D4
:109EB4001DE001990598FFF7F1FD19E00199059856
:109EC400FFF756FE14E001990598FFF762FE0FE0D4
:109ED40001990598FFF7A6FE0AE001990598FFF796
:109EE40009FF05E001990598FFF742FF00E000BF74
:109EF400BDF81230059ADB0013449B7A002B33D053
:109F0400BDF81230059ADB001344DA88BDF812302C
:109F140011461846FFF734FD0390039B002B0ED126
:109F2400BDF81230059ADB00134400229A72BDF882
:109F34001230059ADB0013440122DA7214E0039B09
:109F4400112B11D0094A0A4BD31ADB081B0443F026
:109F54000104039807F0B6F903461A46054920465A
:109F640007F09AFF00E000BF06B010BDAC3D03004F
:109F74004C3D0300884203009BDF704700BF184636
:109F84009DDF704700BF18469EDF704700BF18462C
:109F9400A1DF704700BF1846A3DF704700BF184613
:109FA400AEDF704700BF184600B585B00190009140
:109FB400009B10330393039BDB88102B01D90923E7
:109FC40019E0039BDB881946019806F056FC02460B
:109FD400009B5A60009B5B68002B01D104230AE0BC
:109FE400009B5868039B9968039BDB881A460023EF
:109FF40006F090FD0023184605B05DF804FB00B59B
:10A0040085B001900091009B10330393039B9B68E0
:10A014001B88102B01D9092324E0039B9B681B8810
:10A0240002331946019806F028FC0246009B5A6048
:10A03400009B5B68002B01D1042313E0009B58684C
:10A04400039B99680023022206F064FD009B586874
:10A05400039BD968039B9B681B881A46022306F05E
:10A0640059FD0023184605B05DF804FB00B587B020
:10A0740005900B460392ADF81230039B002B1ED0C3
:10A08400114A124BD31ADB081B0443F00100059B51
:10A094001B781946BDF81220039B009313460A4609
:10A0A4000B4907F01EFF059B9B68002B07D0059BFF
:10A0B4009B68059AD168BDF812200398984700BFA1
:10A0C40007B05DF804FB00BFB43D03004C3D030042
:10A0D400F842030000B597B001900B46ADF802308A
:10A0E4000CAB01221946019806F012FF1590159B3E
:10A0F400002B40F0AC809DF83030052B7ED801A2B7
:10A1040052F823F021A1020037A1020061A102004C
:10A1140079A102008FA10200A5A10200BDF84010A0
:10A12400BDF84220BDF802301846FFF731FF159004
:10A1340071E008AB12930D981299BDF846301A4697
:10A14400002306F005FD0CAB03F11002BDF802304C
:10A1540011461846FFF720FF15905CE0BDF840104B
:10A164000CAB03F11202BDF802301846FFF704FFEE
:10A17400159050E00CAB03F11002BDF8023011460B
:10A184001846FFF7FDFE159045E00CAB03F11002F5
:10A19400BDF8023011461846FFF7F6FE15903AE076
:10A1A40004AB13930D980DF10E010023022206F067
:10A1B400CFFC0DF10E0312930D981399129B1B887B
:10A1C4001A46022306F0C4FCBDF80E30ADF8523036
:10A1D4000CAB03F11002BDF8023011461846FFF72C
:10A1E400DFFE1590159B002B14D1BDF80E30BDF881
:10A1F40052209A420ED00C2315930BE0164A174BAB
:10A20400D31ADB081B0443F002031549184607F070
:10A2140035FE00E000BF159B112B18D09DF830309F
:10A224001A46104B53F82230002B03D00D9B1846CE
:10A2340006F07AFB0CAB00221946019806F068FE82
:10A24400BDF802100CAB159A1846FFF70FFF00BFBC
:10A2540017B05DF804FB00BFB43D03004C3D0300A0
:10A26400444303006043030000B58FB00190019B99
:10A27400DB680DF12E010022184606F049FE0D9010
:10A2840031E0019B9A68BDF82E3019460B469B00BD
:10A294000B449B0013440C9303AB002219460C9807
:10A2A40006F036FE0D9012E09DF80C301A46124B63
:10A2B40053F82230002B03D0049B184606F034FBDD
:10A2C40003AB002219460C9806F022FE0D900D9B5C
:10A2D400002BE9D0019BDB680DF12E01002218460A
:10A2E40006F016FE0D900D9B002BCAD000BF00BFD8
:10A2F4000FB05DF804FB00BF6043030000B585B0F8
:10A3040001900B46ADF8023000230393019B1B78A8
:10A31400052B63D801A252F823F000BF39A3020031
:10A324004FA3020065A302007DA3020093A30200D1
:10A33400A9A30200019B198A019B5A8ABDF8023025
:10A344001846FFF725FE039055E0019B03F1100228
:10A35400BDF8023011461846FFF71EFE03904AE08E
:10A36400019B198A019B03F11202BDF802301846C1
:10A37400FFF702FE03903EE0019B03F11002BDF8DB
:10A38400023011461846FFF7FBFD039033E0019BB2
:10A3940003F11002BDF8023011461846FFF7F4FD30
:10A3A400039028E0019B9B691B88ADF80A30019B50
:10A3B40003F11002BDF8023011461846FFF7F0FD14
:10A3C4000390039B002B15D1019B9B691B88BDF84F
:10A3D4000A209A420ED00C2303930BE00E4A0F4B33
:10A3E400D31ADB081B0443F002030D49184607F097
:10A3F40045FD00E000BF039B112B01D1002307E0C2
:10A40400BDF80230039A19460198FFF72FFE012385
:10A41400184605B05DF804FBB43D03004C3D030051
:10A424004443030084B001900B46ADF8023000238E
:10A43400ADF80E3012E0019B5A68BDF80E305B0097
:10A4440013441B88BDF802209A4202D1BDF80E3095
:10A454000CE0BDF80E300133ADF80E30019B1B88C3
:10A46400BDF80E209A42E6D3BDF80E30184604B06B
:10A47400704784B001900B46ADF802300023ADF86C
:10A484000E301AE0019B5A68BDF80E305B0013448D
:10A494001B884FF6FF7293420AD1019B5A68BDF89C
:10A4A4000E305B001344BDF802201A8000230BE039
:10A4B400BDF80E300133ADF80E30019B1B88BDF89A
:10A4C4000E209A42DED30423184604B0704784B0A9
:10A4D40001900023ADF80E3011E0019B5A68BDF8DD
:10A4E4000E305B0013441B884FF6FF72934201D079
:10A4F40001230BE0BDF80E300133ADF80E30019BA3
:10A504001B88BDF80E209A42E7D30023184604B0F6
:10A514007047000000B589B0039002911346ADF86E
:10A52400063000230693039B002B01D10E2389E000
:10A53400029B002B01D10E2384E00398FFF794FEC5
:10A54400BDF8063019460398FFF76CFF0346ADF8D3
:10A554001E30029B1B78052B05D8039B1B88BDF876
:10A564001E209A4201D107236CE0039B9968BDF831
:10A574001E2013469B0013449B000B44184606F010
:10A5840061FD0346002B0ED0BDF806301946029833
:10A59400FFF7B4FE03468DF817309DF81730002BF3
:10A5A40001D0069B4EE0029B1B781A46274B53F8BA
:10A5B4002230002B18D0039B1B69002B01D10E23E2
:10A5C40040E0029B1B781A46204B53F82230039A32
:10A5D40012690299104698470690069B0493049BBF
:10A5E400002B01D0049B2DE0039B9968BDF81E202D
:10A5F40013469B0013449B000B440299184606F033
:10A60400CFFB0690069B002B0CD0029B1B781A46AE
:10A614000E4B53F82230002B04D0029B5B68184683
:10A6240006F082F9039B9968BDF81E2013469B002F
:10A6340013449B000B44BDF8062011461846FFF74F
:10A6440049FD069B184609B05DF804FB604303000E
:10A6540000B587B001900B46ADF802300023059396
:10A66400019B002B01D10E232FE00198FFF7FCFD85
:10A67400BDF8023019460198FFF7D4FE0346ADF841
:10A684001230019B1B88BDF812209A421CD10198FC
:10A69400FFF71DFF034683F00103DBB2002B05D057
:10A6A400019B1B69184606F0DDF80590BDF80230E1
:10A6B40019460198FFF7DDFE0590059B0393039B64
:10A6C400002B01D0039B00E0059B184607B05DF802
:10A6D40004FB00B587B001900091009B0493019B9B
:10A6E400002B5AD0049B002B57D0019B1B88112BA5
:10A6F40004D1019B9B88ADF8163018E0019B1B88A0
:10A704002F2B08D9019B1B884F2B04D8019B9B88B6
:10A71400ADF816300BE0019B1B884F2B3FD9019BF2
:10A724001B886F2B3BD8019B9B88ADF81630BDF876
:10A73400163019460498FFF775FE0346ADF80E303F
:10A74400049B1A88BDF80E309A422AD0019B1B88BC
:10A75400112B11D1049B5A68BDF80E305B001344D1
:10A764004FF6FF721A80049BDB680DF10E0211464E
:10A77400184606F015FB15E0049B9A68BDF80E30E8
:10A7840019460B469B000B449B001344BDF816204E
:10A7940011461846FFF79EFC04E000BF02E000BF2C
:10A7A40000E000BF07B05DF804FB8ADF704700BF1C
:10A7B40018468BDF704700BF18468CDF704700BF18
:10A7C400184600B58DB001900091009B02330993A7
:10A7D400019B2E330893019B24330B93019B93F825
:10A7E4002C308DF82B30019B93F8233083F0010338
:10A7F400DBB2002B21D100F037FA02AB1422002186
:10A80400184609F04DFA9DF82B300B9A08990998CF
:10A81400FFF7D3FF079005238DF80830079B0393B8
:10A82400079B002B0AD0019BDB6B002B06D0019BFE
:10A83400DB6B02AA1046984700E000BF0DB05DF83C
:10A8440004FB00B587B001900091009B0493009B2A
:10A8540093F820308DF80F30019B9B8BADF80C30B2
:10A8640000238DF8173015E0019B98699DF8173087
:10A874005B01049A1A44BDF80C301946FDF7B9FF80
:10A884000346002B01D001230BE09DF81730013360
:10A894008DF817309DF817209DF80F309A42E3D3B6
:10A8A4000023184607B05DF804FB10B586B001908C
:10A8B4000091019B20330493009809F04FF903465B
:10A8C4008DF80F309DF80F30002B03D09DF80F301A
:10A8D400202B01D90C2333E0049B1B78002B01D0DF
:10A8E40004232DE000238DF8173012E09DF8173073
:10A8F4005B01019A13440099184609F06BF9034669
:10A90400002B01D100231BE09DF8173001338DF893
:10A9140017309DF81730002BE8D0049B1B785A1C85
:10A92400D1B2049A11705B01019AD418009809F00D
:10A9340015F903461A460099204609F07FF90023C9
:10A94400184606B010BD00B587B003900B460192BF
:10A954008DF80B30039B002B01D10E2311E0019BDA
:10A96400002B01D10E230CE09DF80B30002B07D1F6
:10A97400019B059305990398FFF797FF034600E0B1
:10A984000723184607B05DF804FB000000B585B046
:10A9940001900B468DF8033013468DF80230019B6D
:10A9A400002B01D10E233DE09DF8033003F0020398
:10A9B400002B19D19DF8033003F00103002B13D1B0
:10A9C4009DF8033003F00403002B0DD19DF80330F0
:10A9D40003F01003002B07D19DF8033003F00803A4
:10A9E400002B01D107231DE0019800F021F803900A
:10A9F400039B002B04D00D4940F2AF20FCF7F4FC7C
:10AA0400019B02939DF8033003F00103002B03D054
:10AA1400029B012283F82120029B9DF8022083F8E7
:10AA240022200023184605B05DF804FB844303008C
:10AA340084B00190019B002B01D10E2306E0019B01
:10AA440021330393039B00221A700023184604B099
:10AA5400704700B58BB00190009100238DF827302A
:10AA640000238DF8263003AB14220021184609F088
:10AA740017F9019B2E330793019800F083F80346DE
:10AA8400002B15D002238DF80C30009B0493019BFE
:10AA9400DB6B03AA10469847019B03F5A073194684
:10AAA4000020FFF782FE00990198FFF78AFE66E016
:10AAB400019B93F822308DF8243000238DF8253043
:10AAC400019B93F821308DF823309DF82330002B1F
:10AAD40019D09DF8273001338DF82730019900985B
:10AAE400FFF7AFFE0346002B0DD09DF8263001334F
:10AAF4008DF826309DF8143043F001038DF814309E
:10AB040001238DF82530009B04939DF82430002BFD
:10AB14000DD09DF826209DF827309A4207D10023B6
:10AB24008DF80C3000990198FFF74BFE17E09DF863
:10AB3400243083F00103DBB2002B0BD09DF82530C9
:10AB4400002B07D000238DF80C3000990198FFF7F3
:10AB540038FE04E003238DF80C30009B0493019B22
:10AB6400DB6B002B04D0019BDB6B03AA10469847D8
:10AB7400019B03F5A07319460020FFF716FE0BB0E6
:10AB84005DF804FB82B00190019B93F82E3003F032
:10AB94001803DBB2082B07D0019B93F82E3003F087
:10ABA4001803DBB2182B01D1012300E0002318465F
:10ABB40002B0704782B00190019A92F82E3043F0AF
:10ABC400040382F82E30019BA0221A86019B502296
:10ABD4005A86019B00229A86019A92F82E306FF3CE
:10ABE400C40382F82E30019B012283F82F2000BF7A
:10ABF40002B0704782B00190019B4FF4C8725A852D
:10AC0400019B06229A84019B1822DA84019B00226C
:10AC14001A8500BF02B0704700B589B00190009159
:10AC2400009B0433079302AB14220021184609F059
:10AC340037F8079B1B78012B12D1019BDB6B002B90
:10AC44000ED004238DF80830019B2E330693079B06
:10AC54001B788DF80C30019BDB6B02AA10469847D9
:10AC640000BF09B05DF804FB08B5FFF7A2FD00BF03
:10AC740008BD10B584B0039002910192039B002B90
:10AC840001D10E234EE0039B019ADA63039B232236
:10AC94000021184609F004F8029B002B2DD0029BDA
:10ACA4001A79039B83F82320029B1A7B039B83F866
:10ACB4002C20029B1B68002B0CD0029B1A68039B60
:10ACC4002E331468506891681C60586099609289AA
:10ACD4009A8102E00398FFF76DFF029B9B68002BAB
:10ACE40007D0029B9A68039B24331068516803C3FE
:10ACF4000DE00398FFF77EFF09E00398FFF75AFF82
:10AD04000398FFF777FF039B002283F82320039B1C
:10AD140003F14002039BC3F84021039BFF22A3F8E5
:10AD240044210023184604B010BD000000B589B0CA
:10AD34000190019B002B01D10E2339E002AB1422B8
:10AD44000021184608F0ACFFFFF78EFF0198FFF7CB
:10AD540019FF0346002B0BD0019BDB6B002B07D0A4
:10AD640001238DF80830019BDB6B02AA104698473B
:10AD7400019B03F12E02019B03F5A07319461046B3
:10AD8400FFF713FD0790079B082B10D0079B002BA0
:10AD94000DD0094A094BD31ADB081B0443F0010305
:10ADA400079A0749184607F077F8079B00E0002345
:10ADB400184609B05DF804FB9C3D03004C3D0300BC
:10ADC400E443030000B589B00190009103AB142261
:10ADD4000021184608F064FF06238DF80C30009B10
:10ADE40004330493009B1B88ADF81430019B2E336D
:10ADF4000793019BDB6B002B04D0019BDB6B03AA45
:10AE04001046984700BF09B05DF804FB00B587B051
:10AE140001900091009B0593019B08330493019BCF
:10AE240004330393019B1B881D2B06D01D2B13DCBD
:10AE3400102B0CD01B2B05D00EE004990598FFF7BE
:10AE440008FE0AE003990598FFF7E6FE05E003997A
:10AE54000598FFF7B7FF00E000BF00BF07B05DF83B
:10AE640004FB62DF704700BF184600B587B003904B
:10AE740002911346ADF80630029B0593059BDB68EF
:10AE8400002B03D0059BDB680398984700BF07B0ED
:10AE94005DF804FB00B587B001900091019B1A880E
:10AEA400009B9B889A421BD1009B5A89019B9B88DB
:10AEB4009A4216D1009BDB89012B12D102238DF813
:10AEC4000C30019B1B88ADF80E30009B1B7C8DF869
:10AED4001030019B9B6803AA11460198984700E033
:10AEE40000BF07B05DF804FB82B001900091019BA4
:10AEF4001A88009B9B889A420CD1019B4FF6FF72E3
:10AF04001A80019B00225A80019B00229A80019B97
:10AF14000022DA8000BF02B0704700B589B001900A
:10AF24000091009B1B78002B60D1009B9B8841F211
:10AF3400235293425AD1009B9A79019B1B7C9A42DB
:10AF440054D101238DF80C30009B5B88ADF80E3092
:10AF54000023079325E0079A1346DB0013445B00A4
:10AF64000833009A134406330693069B1B8841F268
:10AF74002452934208D041F2255293420DD1069BAC
:10AF84001B89ADF8143009E0069B1B89ADF812301B
:10AF9400069B5B89ADF8103000E000BF079B0133CE
:10AFA4000793009B1B7A1A46079B9342D3D3019BBA
:10AFB4001B884FF6FF72934212D0019BDB88002B53
:10AFC4000ED1019B9B88002B0AD1019B5B88002B2F
:10AFD40006D1019B023304AA1068186092889A80F3
:10AFE400019B9B6803AA11460198984700BF09B0CA
:10AFF4005DF804FB10B58AB0019000912C4B03ACB2
:10B004000FCB84E80F00019B002B01D10E234BE0F2
:10B01400009B002B01D10E2346E0009B1B68002BF4
:10B0240001D10E2340E0009B5B68002B01D10E236D
:10B034003AE0019B00225A80019B00229A80019BE6
:10B044000022DA80019B4FF6FF721A80009B1A6877
:10B05400019B9A60009B5A68019B5A61009B9A6805
:10B06400019BDA60019B03F1100203AB1146184601
:10B07400FFF7F7FE0990099B002B01D0099B13E011
:10B08400099B0893089B002B01D0089B0CE0019BB3
:10B094001B7C8DF81E3041F22353ADF81C3007ABF6
:10B0A4001846FEF74BFB034618460AB010BD00BF16
:10B0B4001444030000B585B001900091009B002B5F
:10B0C40014D0019B002B11D0009B0393019B1B8880
:10B0D400112B06D0392B0BD101990398FFF7DAFE17
:10B0E40007E001990398FFF7FFFE02E000BF00E0CC
:10B0F40000BF05B05DF804FB00B58DB001900B46B0
:10B104008DF803309DF80330ADF82E30BDF82E30A5
:10B11400DBB28DF80830BDF82E301B0A9BB2DBB2CF
:10B124008DF8093001238DF80C30104B0593019BE9
:10B134000693019B5B88ADF81E300223ADF82230E4
:10B144000023ADF8203002AB099301238DF81C30A5
:10B15400019B5869019B1A8803AB1946FFF7DAF97A
:10B16400034618460DB05DF804FB00BF6FAE020045
:10B1740000B583B00190019B002B01D10E230CE09C
:10B18400019B1B884FF6FF72934201D1082304E010
:10B1940001210198FFF7B0FF0346184603B05DF89C
:10B1A40004FB000000B58BB001900B468DF8033012
:10B1B400019B002B01D10E232DE0019B1B884FF630
:10B1C400FF72934201D1082325E002AB2022002123
:10B1D400184608F065FD01238DF80830104B0493E0
:10B1E400019B0593019BDB88ADF81A300123ADF870
:10B1F4001E300DF1030308930023ADF81C30022325
:10B204008DF81830019B5869019B1A8802AB1946C6
:10B21400FFF780F9034618460BB05DF804FB00BF46
:10B224006FAE020000B585B003900B460192ADF8F5
:10B234000A30039B002B01D10E2316E0039BBDF8BB
:10B244000A201A80019B002B06D0039B019A02332B
:10B254001168196092889A80039B5B69BDF80A2083
:10B2640011461846FFF7F4F90346184605B05DF891
:10B2740004FB000082B003468DF807309DF90730C7
:10B28400002B13DB9DF8073003F01F0209499DF9D9
:10B2940007305B09012000FA02F2203341F8232031
:10B2A400BFF34F8F00BFBFF36F8F00BF00BF02B06B
:10B2B400704700BF00E100E0044BD3F80034002BDA
:10B2C40014BF01230023DBB218467047000001407D
:10B2D40008B507F095FD034683F00103DBB2002BAC
:10B2E40003D109497B20FCF77FF8FFF7E5FF03460C
:10B2F40083F00103DBB2002B04D000F04FFB034BBF
:10B3040000229A7000BF08BD2C44030024280020AA
:10B3140000B583B000230193184B1B78002B02D097
:10B32400852301931CE0154B00229A60134B0022E5
:10B334005A60124B00221A61104B0022DA60104846
:10B3440000F0F2FA019007F05BFD034683F001037D
:10B35400DBB2002B01D000F00DFB084B01221A7068
:10B36400FFF7AAFF0346002B02D0044B01229A7078
:10B37400019B184603B05DF804FB00BF242800209D
:10B384005DB4020084B00190019B1B680393039B8E
:10B39400002B03D0039B1A68019B1A60039B184679
:10B3A40004B0704700B583B0164B1B78002B04D152
:10B3B400154940F21710FCF717F8124BDB68002B05
:10B3C40004D111494FF48C70FCF70EF800238DF86A
:10B3D40007300DF10703184603F03CFF094BDB6807
:10B3E400013B084AD360074BDB68002B01D1FFF710
:10B3F4006FFF9DF80730184603F042FF00BF03B00B
:10B404005DF804FB242800202C44030000B585B01B
:10B4140003468DF807309DF80730002B02D10C4B02
:10B42400039301E00B4B03930398FFF7ABFF0290E8
:10B43400029B002B06D0029B5B689DF807201046F8
:10B444009847F1E700BF00BF05B05DF804FB00BFFB
:10B454002C2800203428002000B583B003468DF842
:10B4640007309DF80730002B05D10A4B01225A7092
:10B474000020FFF7CBFF9DF80730012B05D1054BCA
:10B4840001229A700120FFF7C1FF00BF03B05DF8ED
:10B4940004FB00BF2428002000B583B00190009174
:10B4A400019B002B05D1054B01225A700020FFF7A8
:10B4B400ADFF00BF03B05DF804FB00BF24280020EB
:10B4C40000B585B0034600918DF807309DF807302C
:10B4D400032B29D0032B35DC002B02D0012B04D005
:10B4E40030E00020FFF7C6FE2DE000238DF80F307A
:10B4F4000DF10F03184603F0ADFE154B1B7883F0D6
:10B504000103DBB2002B01D0FFF702FF104BDB6815
:10B5140001330F4AD3600E4B01229A709DF80F300D
:10B52400184603F0ADFE0EE0094B1B78002B04D146
:10B53400084940F25220FBF757FF00F01BFAFFF7CF
:10B5440031FF00E000BF00BF05B05DF804FB00BFA1
:10B55400242800202C44030000B589B001900091F8
:10B56400009B0793019B1B788DF80C30019B5B6853
:10B574000493019B9B68DBB28DF81430019BDB685C
:10B584000693074A079B52F823300649079A51F855
:10B59400221003AA1046984700BF09B05DF804FBC7
:10B5A400382800204028002000B589B0019000917F
:10B5B400009B0793019B1B788DF80C30019B5B6803
:10B5C4000493019B9B68DBB28DF81430019BDB680C
:10B5D4000693074A079B52F823300649079A51F805
:10B5E400221003AA1046984700BF09B05DF804FB77
:10B5F400382800204028002030B58FB003900291F5
:10B604000192039B1B780C932C490C9B019A41F8E3
:10B614002320029B1A692A490C9B41F823200C9B86
:10B62400012B07D1029B5B7F002B03D12549762098
:10B63400FBF7DAFE029B5B7F1946234A0C9B1344FB
:10B644000A461A70029B04AC1D460FCD0FC495E840
:10B654000F0084E80F000C9B089300230D93039BB9
:10B664001B781A46184B9B5C002B0DD0039B181DAE
:10B67400019B002B01D0154A00E0002204AB1946BF
:10B6840002F00CFB0D9014E0039B1B781A460E4B42
:10B694009B5C002B0DD1039B03F10C00019B002B41
:10B6A40001D00B4A00E0002204AB194601F06EFC05
:10B6B4000D900D9B18460FB030BD00BF38280020F8
:10B6C4004028002088440300482800205DB502007B
:10B6D400ADB5020082B003468DF807309DF90730FE
:10B6E400002B0CDB9DF8073003F01F0205499DF980
:10B6F40007305B09012000FA02F241F8232000BF61
:10B7040002B0704700E100E082B0034600918DF87A
:10B7140007309DF90730002B0ADB009BDAB20C4995
:10B724009DF907305201D2B20B4483F800230BE099
:10B73400009BDAB207499DF8073003F00F03043B7E
:10B744005201D2B20B441A7600BF02B0704700BF58
:10B7540000E100E000ED00E082B00190019B1B0BD2
:10B764005BB2184602B0704700B583B003460A4680
:10B774008DF8073013468DF806309DF80630012BFE
:10B7840003D99DF80630032B0BD99DF80630042B02
:10B7940003D99DF80630072B03D908496B20FBF722
:10B7A40023FE9DF806209DF9073011461846FFF741
:10B7B400ABFF00BF03B05DF804FB00BFE44403002B
:10B7C40000B583B003468DF807309DF9073018465D
:10B7D400FFF780FF00BF03B05DF804FB82B00346AF
:10B7E4008DF807300F4A9DF90730002B00DA1F331C
:10B7F4005B115BB252F823209DF90730594203F0E4
:10B804001F0301F01F0158BF4B425BB222FA03F33E
:10B8140003F00103002B14BF01230023DBB21846FD
:10B8240002B0704700E100E082B001904FF0804226
:10B83400019BC2F8083300BF02B0704782B00346D0
:10B844008DF807309DF8073003F1804301221A6018
:10B8540000BF02B0704784B00346ADF80630BDF8AF
:10B86400063003F1804300221A60BDF8063003F16C
:10B8740080431B680393039B00BF04B0704782B0EE
:10B884000346ADF80630BDF8063003F180431B686B
:10B89400002B14BF01230023DBB2184602B070470B
:10B8A40082B001904FF08042019BC2F8183500BF6E
:10B8B40002B070474FF08043D3F818341B0C03F0E8
:10B8C4000103002B14BF01230023DBB21846704789
:10B8D40000B583B006238DF807304FF08040FFF7A2
:10B8E4003BFF03461846FFF779FF034683F0010345
:10B8F400DBB2002B13D04FF08040FFF72DFF03463F
:10B904001A469DF8073019461046FFF72DFF4FF0F1
:10B914008040FFF721FF03461846FFF751FF00BFA1
:10B9240003B05DF804FB000000B585B00190019BF5
:10B93400002B03D10D49A420FBF756FD00230393EC
:10B944000B4B1B79002B02D08523039308E0084A94
:10B95400019B1360064B01221A71054B00225A7198
:10B96400039B184605B05DF804FB00BF1C450300AB
:10B974004C28002008B5074B1B79002B03D106493E
:10B98400BD20FBF731FDFFF7A3FF0120FFF788FF80
:10B9940000BF08BD4C2800201C45030008B50D4B12
:10B9A4001B79002B03D10C49F720FBF71DFD022066
:10B9B400FFF73AFF4FF48270FFF74DFF0C20FFF7BB
:10B9C4003DFF00BFFFF776FF0346002BFAD100BF0F
:10B9D40000BF08BD4C2800201C45030008B54FF4E7
:10B9E4008070FFF74CFF0346002B14D04FF4807097
:10B9F400FFF731FF0120FFF717FF114B5B7983F04D
:10BA04000103DBB2002B06D00D4B01225A710C4B03
:10BA14001B68002098474FF48270FFF730FF0346FD
:10BA2400002B0AD04FF48270FFF715FF0220FFF7B6
:10BA3400FBFE034B1B680120984700BF08BD00BFF5
:10BA44004C28002082B003468DF807309DF907305A
:10BA5400002B0CDB9DF8073003F01F0205499DF90C
:10BA640007305B09012000FA02F241F8232000BFED
:10BA740002B0704700E100E082B0034600918DF807
:10BA840007309DF90730002B0ADB009BDAB20C4922
:10BA94009DF907305201D2B20B4483F800230BE026
:10BAA400009BDAB207499DF8073003F00F03043B0B
:10BAB4005201D2B20B441A7600BF02B0704700BFE5
:10BAC40000E100E000ED00E082B00190019B1B0B5F
:10BAD4005BB2184602B0704700B583B003460A460D
:10BAE4008DF8073013468DF806309DF80630012B8B
:10BAF40003D99DF80630032B0BD99DF80630042B8F
:10BB040003D99DF80630072B03D908496B20FBF7AE
:10BB14006BFC9DF806209DF9073011461846FFF787
:10BB2400ABFF00BF03B05DF804FB00BF7845030022
:10BB340000B583B003468DF807309DF907301846E9
:10BB4400FFF780FF00BF03B05DF804FB00B583B0CE
:10BB54000346ADF80630BDF80630184600F026F866
:10BB640003461B68012B0CBF01230023DBB21846DC
:10BB740003B05DF804FB00B585B00346ADF80630AC
:10BB8400BDF80630184600F011F803461A460023A3
:10BB94001360BDF80630184600F008F803461B6829
:10BBA4000393039B00BF05B05DF804FB82B003461A
:10BBB400ADF80630BDF8063003F1804303F5C04309
:10BBC400184602B07047000082B00190034A019BFE
:10BBD400C2F8043300BF02B0704700BF00600040E9
:10BBE40082B00190034BD3F80423019B1340184601
:10BBF40002B070470060004082B00190084A019B87
:10BC040003F5A27352F82330054943F00102019B66
:10BC140003F5A27341F8232000BF02B0704700BFB0
:10BC24000060004084B00390029113468DF8073001
:10BC3400144A039B03F5A27352F82330114923F4E9
:10BC44004F3323F44073039A02F5A27241F8223071
:10BC54000C4A039B03F5A27352F82320029B1B0298
:10BC640003F47C519DF807301B0403F440330B4369
:10BC740004491A43039B03F5A27341F8232000BF30
:10BC840004B070470060004082B00190054A019BF7
:10BC940003F5A27352F823301B0A03F03F0318463E
:10BCA40002B070470060004082B00190064A019BD8
:10BCB40003F5A27352F823301B0C03F00303DBB229
:10BCC400184602B0704700BF0060004000B583B062
:10BCD4000190019B1B68184600F028F90346002BCD
:10BCE40004D10B494FF4F670FBF77EFB019B1B68F4
:10BCF4001F2B02D84FF0A04306E0019B1B6803F002
:10BD04001F02019B1A60034B184603B05DF804FB45
:10BD1400A84503000003005000B585B00190084613
:10BD240011461A4603468DF803300B468DF802304F
:10BD340013468DF8013001AB1846FFF7C7FF039097
:10BD44009DF803209DF802305B001A439DF80130F2
:10BD54009B001A439DF818301B0242EA03019DF828
:10BD64001C301B04019A1943039B02F5E07243F84B
:10BD7400221000BF05B05DF804FB00B585B0039048
:10BD84000B468DF80B309DF80B30002201920022F7
:10BD94000092002200210398FFF7BEFF00BF05B008
:10BDA4005DF804FB00B585B0019001AB1846FFF7C0
:10BDB4008DFF0390019A039B02F5E07253F8223041
:10BDC40023F002030293019A039B02F5E0720299A5
:10BDD40043F8221000BF05B05DF804FB00B585B040
:10BDE40001900B468DF8033001AB1846FFF76EFF48
:10BDF4000390019A039B02F5E07253F82230019AF2
:10BE040023F44031039B02F5E07243F82210019AB7
:10BE1400039B02F5E07253F822109DF803301B04D3
:10BE2400019A1943039B02F5E07243F8221000BF04
:10BE340005B05DF804FB00B585B0019001AB184670
:10BE4400FFF744FF0390039800F020F80246019B9B
:10BE540022FA03F303F00103184605B05DF804FB6E
:10BE640000B585B0019001AB1846FFF72FFF039092
:10BE7400019A039B02F5E07253F822301B0C03F085
:10BE84000303DBB2184605B05DF804FB82B00190F1
:10BE9400019BD3F81035184602B0704788B0039060
:10BEA40002910192164A05AB92E8030083E803006D
:10BEB400039B079319E0079B9B0020336B4453F8C3
:10BEC4000C3CD3F82025019B1A60079B9B00203370
:10BED4006B4453F80C3C019A1268C3F82025019B6B
:10BEE40004330193079B01330793039A029B134482
:10BEF400079A9A42DFD300BF00BF08B0704700BF63
:10BF0400D845030000B585B0019001AB1846FFF792
:10BF1400DDFE0390019B012202FA03F31A46039B00
:10BF2400C3F8202500BF05B05DF804FB84B0019080
:10BF3400019B5B09029300230393029B002B03D014
:10BF4400029B012B04D007E04FF0FF33039303E07F
:10BF54004FF6FF73039300BF019B03F01F0301938C
:10BF6400039A019B22FA03F303F00103002B14BF8D
:10BF740001230023DBB2184604B0704784B001905B
:10BF84000091009B0393019BDB080293019B03F048
:10BF9400070301930122019B02FA03F30399029A16
:10BFA4000A4412781340184604B0704784B00190D4
:10BFB4000091009B0393019BDB080293019B03F018
:10BFC40007030193039A029B13441B785AB201217D
:10BFD400019B01FA03F35BB2134359B2039A029B28
:10BFE4001344CAB21A7000BF04B0704782B0019003
:10BFF4000C4A019B1344303393F90030002B09DBC6
:10C00400084A019B1344303393F90030072B01DCB9
:10C01400012300E0002303F00103DBB2184602B061
:10C02400704700BF5428002082B00190064A019B4B
:10C034001344303393F90030072BCCBF0123002382
:10C04400DBB2184602B070475428002082B0019039
:10C05400064A019B1344303393F90030DB43DBB2CF
:10C06400DB09DBB2184602B0704700BF5428002039
:10C0740084B00390029101928DF80330029B59B26F
:10C084000E4A039B134430330A461A700B49029B31
:10C09400019A41F823209DF8033083F00103DBB2B9
:10C0A400002B08D0029B083B039A51B2034A134465
:10C0B4000A4683F8602000BF04B07047542800206B
:10C0C40082B00190044A019B13443033FF221A705A
:10C0D40000BF02B0704700BF5428002000B583B0F1
:10C0E400019004490198FFF761FF00BF03B05DF8B8
:10C0F40004FB00BFB828002082B00190044A019BD1
:10C104001344303393F90030184602B0704700BF2F
:10C114005428002082B00190034A019B52F8233036
:10C12400184602B0704700BF5428002084B0019024
:10C13400074A019B1344603393F900308DF80F30A4
:10C144009DF80F3023F0C003184604B0704700BFB9
:10C154005428002084B00190074A019B13446033A3
:10C1640093F900308DF80F309DF80F309B09DBB246
:10C17400184604B0704700BF5428002000B589B0A9
:10C184000390029113468DF80730FF238DF81F307A
:10C194009DF80730002B01D0002300E0082305930D
:10C1A4009DF80730002B01D0082300E00C230493F2
:10C1B400059B069314E00F4A069B52F82330B3F113
:10C1C400FF3F0AD19DF80730029A06990398FFF7BA
:10C1D4004FFF069B8DF81F3006E0069B0133069344
:10C1E400069A049B9A42E6D39DF91F30184609B07B
:10C1F4005DF804FB5428002082B003468DF8073014
:10C204009DF80730094A4FF0FF3142F823109DF89A
:10C214000730072B07D99DF80730083B034A13441E
:10C22400FF2283F8602000BF02B07047542800202A
:10C2340000B583B02D4B93F86A30002B03D008234C
:10C244000093009B4EE000238DF8073011E09DF829
:10C2540007301846FFF76AFE0346002B04D09DF80A
:10C2640007301846FFF72CFF9DF8073001338DF88F
:10C2740007309DF807302F2BE9D900238DF80730BC
:10C2840009E09DF807301846FFF7B6FF9DF8073020
:10C2940001338DF807309DF807300B2BF1D90622B6
:10C2A4000021134807F0FCFC1248FFF70DFC03467D
:10C2B40006211846FFF710FC0E48FFF705FC03465D
:10C2C4001846FFF735FC4FF4BE70FFF754FC4FF0EF
:10C2D4000040FFF779FC054B012283F86A20002314
:10C2E4000093009B184603B05DF804FB542800201B
:10C2F400B828002000600040044B93F86A30002BFB
:10C3040014BF01230023DBB21846704754280020D1
:10C3140000B587B00390029101920398FFF706FEDF
:10C324000346002B04D136494FF40C70FBF75CF83C
:10C33400002305930398FFF789FE0346002B02D0E0
:10C344000823059357E0029B9B78C3F34003DBB2B9
:10C354001A4601990398FFF711FF03468DF813302D
:10C364009DF91330B3F1FF3F43D0029B9B78C3F395
:10C374008003DBB283F00103DBB2002B13D0029BFA
:10C384009B7803F00103DBB2002B03D00398FFF783
:10C3940009FD05E0029B5B7819460398FFF7EDFC65
:10C3A4000398FFF79BFE029B9B7803F00203DBB22A
:10C3B400002B08D09DF91300029B1B781A460399A1
:10C3C400FFF730FC17E09DF91330083B0D4A134486
:10C3D40093F96010029B1B789B015AB29DF91330AC
:10C3E400083B0A4351B2074A13440A4683F86020C3
:10C3F40001E004230593059B184607B05DF804FB90
:10C40400E84503005428002000B589B001900B468C
:10C414008DF803300198FFF789FD0346002B04D102
:10C424003A494FF41870FAF7DFFF0198FFF70EFE50
:10C434000346002B04D1354940F26120FAF7D4FFBA
:10C444000198FFF7F1FD0346002B2AD00198FFF76E
:10C4540053FE0346083B1846FFF77CFE03468DF85F
:10C464000F309DF80F30032B0BD10198FFF7E3FC3D
:10C474000346002B01D0032300E002238DF81F3074
:10C4840008E09DF80F30012B01D1022300E00323C3
:10C494008DF81F309DF81F3019460198FFF79EFC58
:10C4A40030E00198FFF7A2FD0346002B2AD0019843
:10C4B400FFF722FE03460693069B9BB240339BB2D2
:10C4C4009B00ADF81630069B1846FFF795FBBDF8A8
:10C4D40016301846FFF74FFB9DF80330002B11D0A0
:10C4E4000198FFF709FE03461846FFF713FE049070
:10C4F400049B002B06D00122069B02FA03F3184684
:10C50400FFF762FB00BF09B05DF804FBE8450300D8
:10C5140000B583B001900198FFF708FD0346002B96
:10C5240004D1094940F2B220FAF75EFF0198FFF7FF
:10C5340082FC0346002B14BF01230023DBB2184600
:10C5440003B05DF804FB00BFE845030000B585B007
:10C554000190019A02210020FFF7A0FC002303931D
:10C564000BE0039B9B00019A13441B68002B01D032
:10C57400012306E0039B01330393039B012BF0D9B2
:10C584000023184605B05DF804FB000000B587B031
:10C594000190002305935BE0344A059B1344603308
:10C5A40093F90030B3F1FF3F4ED00598FFF7BEFD7D
:10C5B400049001990498FFF7E1FC0346002B44D052
:10C5C4000598FFF7C7FD03468DF80F300498FFF771
:10C5D40047FC03468DF80E309DF80E30022B01D136
:10C5E400032300E002238DF80D309DF80D30194629
:10C5F4000498FFF7F3FB0498FFF784FC0498FFF713
:10C604007BFD03461846FFF785FD0290029B002B35
:10C614001BD09DF80F30032B0FD09DF80E30022B4A
:10C6240003D19DF80F30012B07D09DF80E30032B5A
:10C634000BD19DF80F30022B07D19DF80F20029BE0
:10C6440011460498984700E000BF059B0133059309
:10C65400059B032BA0D90198FFF778FF0346002B15
:10C6640097D100BF00BF07B05DF804FB5428002039
:10C6740000B58BB00023089301AB00221A605A6006
:10C684004FF48073ADF81A30012309930023079304
:10C6940021E0BDF81A301846FFF758FA0346002B7C
:10C6A4000ED00998FFF79CFA0346002B08D0BDF87A
:10C6B4001A301846FFF75FFA089A099B1343089348
:10C6C400099B5B000993BDF81A300433ADF81A30A6
:10C6D400079B01330793079B072BDAD94FF4BE70EE
:10C6E400FFF734FA0346002B0DD04FF4BE70FFF76A
:10C6F40042FA089B43F00043089301AB1A46022117
:10C704000020FFF7CBFB089BDBB2002B29D00123D1
:10C7140009930023079321E0099A089B1340002BF7
:10C7240016D00798FFF7B0FA05900798FFF7BCFA00
:10C7340003468DF813300798FFF7ECFC0390039B36
:10C74400002B05D09DF81320039B114605989847AC
:10C75400099B5B000993079B01330793079B072BF6
:10C76400DAD9089B002B03DA01AB1846FFF70EFF5A
:10C7740000BF0BB05DF804FB08B5064B1B68002B2B
:10C7840003D105495120FAF72FFE024B1B68984745
:10C7940008BD00BFC02800204846030082B00190B5
:10C7A400019B044A934201D1034B00E00023184645
:10C7B40002B0704700200040C028002000B587B0B8
:10C7C40001900091019B002B03D11C497720FAF7BB
:10C7D4000BFE0198FFF7E2FF0590059B002B25D087
:10C7E40000238DF8133000238DF80B300DF10B036B
:10C7F400184602F02FFD059B1B79002B03D0012363
:10C804008DF8133005E0059B009A1A60059B012200
:10C814001A719DF80B30184602F032FD9DF8133062
:10C82400002B03D011230393039B02E00023039303
:10C83400039B184607B05DF804FB00BF484603009D
:10C8440000B585B00190019B002B03D10A499B20C0
:10C85400FAF7CAFD0198FFF7A1FF0390039B002B91
:10C8640005D0039B00221A60039B00221A7100BFAB
:10C8740005B05DF804FB00BF4846030082B00346E0
:10C884008DF807309DF90730002B0CDB9DF807303D
:10C8940003F01F0205499DF907305B09012000FAE6
:10C8A40002F241F8232000BF02B0704700E100E02B
:10C8B40082B003468DF807309DF90730002B13DB57
:10C8C4009DF8073003F01F0209499DF907305B0901
:10C8D400012000FA02F2203341F82320BFF34F8FE6
:10C8E40000BFBFF36F8F00BF00BF02B0704700BF2F
:10C8F40000E100E082B0034600918DF807309DF915
:10C904000730002B0ADB009BDAB20C499DF9073093
:10C914005201D2B20B4483F800230BE0009BDAB23D
:10C9240007499DF8073003F00F03043B5201D2B2CC
:10C934000B441A7600BF02B0704700BF00E100E06C
:10C9440000ED00E082B00190019B1B0B5BB2184626
:10C9540002B0704700B583B003460A468DF807302D
:10C9640013468DF806309DF80630012B03D99DF847
:10C974000630032B0BD99DF80630042B03D99DF800
:10C984000630072B03D908496B20FAF72DFD9DF8D3
:10C9940006209DF9073011461846FFF7ABFF00BF8C
:10C9A40003B05DF804FB00BFA446030000B583B0E8
:10C9B40003468DF807309DF907301846FFF75EFFF0
:10C9C40000BF03B05DF804FB00B583B003468DF8E7
:10C9D40007309DF907301846FFF76AFF00BF03B020
:10C9E4005DF804FB84B001900B46ADF80230BDF84D
:10C9F4000230019A134400221A60BDF80230019AF1
:10CA040013441B680393039B00BF04B0704782B0B8
:10CA140001900B46ADF80230BDF80230019A134480
:10CA24001B68002B14BF01230023DBB2184602B09D
:10CA3400704782B001900091019B009AC3F80423CF
:10CA440000BF02B0704782B001900091019BD3F8FF
:10CA54000423009B1340002B14BF01230023DBB2EB
:10CA6400184602B0704782B001900091019B009A71
:10CA7400C3F8082300BF02B0704784B00190019B43
:10CA8400D3F880340393019B039AC3F88024039B57
:10CA9400184604B0704782B00190019B0422C3F889
:10CAA400002500BF02B0704782B00190019B0022B4
:10CAB400C3F8002500BF02B0704784B00390029110
:10CAC4000192039B019AC3F81425039B029AC3F8AD
